:1000000080313C28013400347E14803120007F0888
:10001000F9000B1F15282100111F15282000111FA2
:1000200015288C310D24803137280B1F2128210001
:10003000111E21282000111E21288D311B25803101
:1000400037280B1F2D282100911E2D282000911EDE
:100050002D288E319D26803137280B1F372821000F
:10006000111C37282000111C37288C31C624790830
:100070002000FF007E10090080313E2822008031E0
:1000800002208031E900803103208031EA00D53040
:1000900084008E308500A0308600013087003B3020
:1000A0008B31EC238031FA01FB01FC01FD012000C2
:1000B000E901EA01EB01EC012100ED01EE01EF01A4
:1000C0004A308400013085001C308B31E6238031BA
:1000D000DB3084000130850010308B31E623803125
:1000E00020308400023085004B308B31E6237E10B7
:1000F000200084313B2CA030860001308700203066
:100100008400013085002A302000D00016001A003B
:10011000D00B8628E830D8000330D9000030D20058
:100120000030D3000030D4000030D5000030D600BD
:100130000030D7002030860002308700A0308400D5
:10014000003085004B30D00016001A00D00BA428D8
:100150002100EB01EC016C08803A2000D0008030D7
:100160005002031DB628133021006B0203181F2A0A
:1001700021006B35203E860001308700403F200083
:10018000D000413FD1004F085102031DC9284E083D
:100190005002031C0D2A21006B35023E203E8600D2
:1001A00001308700403F2000D000413FD10051087E
:1001B0004F02031DDD2850084E02031C0D2A2100AA
:1001C0006B35203E8600013087006B35023E203EB5
:1001D000840001308500003F2000D000013FD100A5
:1001E000D009D109D00A0319D10A403F5007A8000D
:1001F000413F513DA9008C31522480312000280814
:10020000D2002908D3002A08D4000030BE00C8302C
:10021000BF004130C0005208C1005308C20054085A
:10022000C30086318726803120003E08D5003F0874
:10023000D6004008D700DA01DB015B08803AD00025
:1002400080305002031D262919305A0203188B29C9
:1002500003302000D0005008A0005A088C312C2414
:100260008031A03E8600870120005B08A9005A0863
:10027000A8008D317525803120002808B10029089B
:10028000B2002A08B3005508AE005608AF00570860
:10029000B0008531D325803120002E08BE002F0804
:1002A000BF003008C0008C310424803120003E089B
:1002B000C1003F08C2004008C30021006B35203E4A
:1002C000840001308500003F2000A800013FA90004
:1002D0008C315224803120002808C4002908C50030
:1002E0002A08C60083314523803120004108C03FE1
:1002F0004208C13F4308C23F0130DA070030DB3D0E
:100300005B08803AD00080305002031D89291930E3
:100310005A02031C28292000DC01DD015D08803A17
:10032000D00080305002031D972919305C02031859
:100330000D2A03302000D0005008A0005C088C314A
:100340002C248031A03E86008701403F2000AE0073
:10035000413FAF00423FB0004F08A9004E08A8003F
:100360008D317525803120002808B1002908B200A0
:100370002A08B3008F3110278031031CFD2920008B
:100380004F08A9004E08A8008D3175258031200046
:100390002808AE002908AF002A08B0000330D000BA
:1003A0005008A0005C08013E8C312C248031A03E16
:1003B00086008701403F2000B100413FB200423F2C
:1003C000B3008F3110278031031CFD2921006C08F8
:1003D0002000A10021006B082000A0001930A2001D
:1003E0000030A3008C31E224803120005C0820071B
:1003F000D8005D08213DD9000D2A01302000DC071E
:100400000030DD3D5D08803AD00080305002031D91
:100410000B2A19305C02031C992901302100EB07DB
:100420000030EC3D6C08803A2000D0008030500253
:10043000031D1D2A133021006B02031CB828200065
:100440005908CF005808CE0008002000BA0020004C
:100450002F08B2002E08B100AE0A0319AF0A310806
:100460008400320885000008B3003308B900390859
:100470000319422B253039060319662A3A0A8600E9
:100480008701160001040319522A3908B100310806
:10049000A2003A0A86008701413F8A00403F0A00D5
:1004A0008231272A20003908B1003A0886008701E6
:1004B0000108860001308700310881000130B10059
:1004C0003A088600870131088107272AB5012F08DD
:1004D000B2002E08B100AE0A0319AF0A3108840039
:1004E000320885000008B900003A0319422B643A2B
:1004F00003197E2A0D3A03197E2A272A300886001E
:10050000870101088400850102308107003FB700A0
:10051000013FB800B81F952A0330B1003108B50477
:10052000B709B809B70A0319B80AB901B90A0530F9
:1005300039060319BA2A3908B100B201B135B20D32
:100540006130310784009030323D8500003FB300B8
:10055000013FB40034083802031DB02A33083702C3
:10056000031CBA2A0130B1003108B9070530390639
:10057000031D9B2A350803390319E52A3A0A860028
:100580008701160001040319D22A2D30B100310869
:10059000A2003A0A86008701413F8A00403F0A00D4
:1005A0008231E52A2D302000B1003A08860087010B
:1005B0000108860001308700310881000130B10058
:1005C0003A08860087013108810720003908B10008
:1005D0003108B600FF302000B1003108B607360AF6
:1005E0000319272A0A30A8000030A9003608B100F4
:1005F000B201B135B20D6130310784009030323D27
:100600008500003FA000013FA1003808A300370883
:10061000A2008E316826823120002108AB0020081C
:10062000AA008E310726823120002808303EB30010
:100630003308B9003A0A860087011600010403193D
:100640002E2B3908B1003108A2003A0A8600870132
:10065000413F8A00403F0A008331EA2A20003908DE
:10066000B1003A0886008701010886000130870042
:10067000310881000130B1003A0886008701310855
:100680008107EA2AAE01AF01080020004108C70037
:100690004208C8004308C9000310480D490DCA00AC
:1006A0004A08CD004408C7004508C8004608C900EC
:1006B0000310480D490DCA004A08CC004D08031923
:1006C0006D2B4C084D020318742B4D03FF3A4C0759
:1006D000C70019304702031C742B4408C1004508A9
:1006E000C2004608C30008004C08031908004D0862
:1006F0004C020318832B4C03FF3A4D07C7001930F7
:100700004702031808000630C7004708CB00C31B88
:10071000CB17C61B4B17C217FF30C105FF30C205F0
:100720000030C305C517FF30C405FF30C5050030D4
:10073000C6054C084D020318BF2B0130C435C50D4A
:10074000C60D890B9E2B0130CC024C084D060319B7
:10075000BA2B0130CB024B0807390319BA2B9D2B5A
:100760000130C336C20CC10C890BB12B0130C7005C
:100770004708CD074D084C060319E42BB02B4D0854
:100780004C020318E42B0130C135C20DC30D890B97
:10079000C42B0130CD024C084D060319E02B01306B
:1007A000CB024B0807390319E02BC32B0130C636A7
:1007B000C50CC40C890BD72B0130C7004708CC07E8
:1007C0004D084C06031DD62BCB1FF62BFF30C10660
:1007D000FF30C206FF30C3060130C10700300318E6
:1007E0000130C207003003180130C3074B1F082C2B
:1007F000FF30C406FF30C506FF30C6060130C4070F
:10080000003003180130C507003003180130C60757
:10081000CB014108C4074208C53D4308C63DC61F79
:10082000232CFF30C406FF30C506FF30C60601305A
:10083000C407003003180130C50700300318013029
:10084000C607CB01CB0A4408A0004508A100460812
:10085000A2004D08C7004708A3004B08C80048087D
:10086000A4008F319B2720002008C1002108C2006E
:100870002208C30008002000DF018C311A248431D3
:100880008B31D723843121000E108E110E128E125F
:100890008D018F0123000F08E0398F008B170B1794
:1008A0008E31342684318C313E2484310130220053
:1008B000CA000030CB00220058035904031DAC2CA1
:1008C00039302000BE00C430BF003F30C000E030EF
:1008D000AE009730AF004030B00022006508200025
:1008E000A900220064082000A8008C315224843121
:1008F00020002808B1002908B2002A08B300853179
:10090000D325843120002E08C1002F08C2003008F2
:10091000C30086318726843120003E08E0003F086E
:10092000E1004008E2006008A0006108A100620840
:10093000A20087313027843120002108CF00200811
:10094000CE0080317B20843120004F08E4004E0827
:10095000E3002200D801D9018731B72784318030E4
:100960008D31392584313C302000DE00D730890BB1
:10097000B72CDE0BB72C2000E501E6016508CA3E66
:1009800086000130870001080319D52C6508CA3E8E
:1009900086000130870001088C31672484310130E2
:1009A0002000E5070030E63DBE2CC0308D313925F2
:1009B00084313C302000DE00D730890BDD2CDE0B8B
:1009C000DD2C27302000BB009030BC006408BE0046
:1009D0006308BD00D3308D31572584312000E701F5
:1009E000E8016708D33E860001308700010803193B
:1009F000082D6708D33E86000130870001088C313E
:100A00006724843101302000E7070030E83DF12CF5
:100A10003C302000DE00D730890B0C2DDE0B0C2D76
:100A2000220060036104031D5B2C62036304031D49
:100A30005B2C85311D2584315B2C013022006A023C
:100A40002C30031969020318B52D58035904031DEE
:100A5000B52D4A034B04031D6F2D0130E90700300B
:100A6000EA3D7A08031D3D2D01302000A00020083A
:100A7000FA0722000E148E11482D7A03031D4A2D09
:100A800001302000A0002008FA0722000E108E1569
:100A90000E12572D02307A06031D592D0130200009
:100AA000A0002008FA0722000E108E110E168E12DA
:100AB0006C2D03307A06031D682D01302000A00044
:100AC0002008FA0722000E108E110E128E166C2DC1
:100AD00004307A060319FA01D801D90108004A083E
:100AE0004B04031D08000130E9070030EA3D7A0895
:100AF000031D832D01302000A0002008FA072200EA
:100B00008E160E128E2D7A03031D902D01302000BB
:100B1000A0002008FA0722008E120E168E119D2DBD
:100B200002307A06031D9F2D01302000A00020080E
:100B3000FA0722008E120E128E150E10B22D0330FF
:100B40007A06031DAE2D01302000A0002008FA0710
:100B500022008E120E128E110E14B22D04307A065F
:100B60000319FA01D801D90108002C306906031DC8
:100B700008006A03031D0800E201E301E001E1014E
:100B8000E901EA014A034B04031DC92DCA01CB0147
:100B9000D12D4A084B04031DD12D0130CA0000306D
:100BA000CB00FA01080020002E08B4002F08B50081
:100BB0003008B6000310350D360DB7003708B80001
:100BC0003808031DEA2D0030AE000030AF000030C1
:100BD000B00008003108B4003208B5003308B60090
:100BE0000310350D360DB7003708BD003D08031D55
:100BF000002E0030AE000030AF000030B000080022
:100C00003D087B3EB4003408B8072E08B4002F0816
:100C1000B5003008B6001030B636B50CB40C890BF0
:100C20000C2E3408B7003708BD003108B400320874
:100C3000B5003308B6001030B636B50CB40C890BCD
:100C40001C2E3408B7003708BD068030B4003408C5
:100C5000BD05AF17B217FF30B105FF30B205003048
:100C6000B3050030B9000030BA000030BB000730D7
:100C7000B4003408BC002E1C432E3108B9073208DA
:100C8000BA3D3308BB3D0130B036AF0CAE0C890B1A
:100C9000442E0130B135B20DB30D890B4A2E01300F
:100CA000BC02031D3B2E0930B4003408BC002E1CCE
:100CB0005F2E3108B9073208BA3D3308BB3D013019
:100CC000B036AF0CAE0C890B602E0130BB36BA0CBF
:100CD000B90C890B662E0130BC02031D572E390852
:100CE000A0003A08A1003B08A2003808B40034086C
:100CF000A3003D08B5003508A4008F319B272000D4
:100D00002008AE002108AF002208B0000800200033
:100D10004108C4004208C5004308C6000310450D41
:100D2000460DC7004708CC004C08031D9E2E00301E
:100D3000BE000030BF000030C00008003E08C40004
:100D40003F08C5004008C6000310450D460DC7000A
:100D50004708CD004D08031DB42E0030BE00003002
:100D6000BF000030C00008000030C9000030CA00D9
:100D70000030CB0089304D07C4004408CC02410844
:100D8000C4004208C5004308C6001030C636C50C72
:100D9000C40C890BC62E4408C7004708CD003E0886
:100DA000C4003F08C5004008C6001030C636C50C58
:100DB000C40C890BD62E4408C7004708CD068030E6
:100DC000C4004408CD05C217FF30C105FF30C2057D
:100DD0000030C305BF17FF30BE05FF30BF05003030
:100DE000C0051830C4004408C8000130C935CA0D18
:100DF000CB0D890BF62E40084302031D052F3F083B
:100E00004202031D052F3E084102031C0E2F3E081F
:100E1000C1023F08C23B4008C33B49140130C13501
:100E2000C20DC30D890B0F2F0130C802031DF52E13
:100E30004908A0004A08A1004B08A2004C08C400C1
:100E40004408A3004D08C5004508A4008F319B2726
:100E500020002008BE002108BF002208C0000800B2
:100E600020002008A4002108A5002208A6000310E5
:100E7000250D260DA7002708AD002D08031D492FBD
:100E80000030A3000030A2000030A1000030A0001C
:100E900008002008A4002108A5002208A600173099
:100EA000A636A50CA40C890B502F2408A7002708F0
:100EB000A800A117FF30A005FF30A1050030A20552
:100EC0002008A9002108AA002208AB00AC018E303E
:100ED000AD02AD1F872F2D08803A8F3E0318792F62
:100EE0000030A3000030A2000030A1000030A000BC
:100EF00008000130AC36AB0CAA0CA90C890B7A2F78
:100F00000130A4002408AD070319A02F792F183051
:100F10002D02031C9D2F0030A3000030A2000030E2
:100F2000A1000030A00008000130A935AA0DAB0DCA
:100F3000AC0D890B952F0130AD022D08031D942FA8
:100F400028080319AE2FA909AA09AB09AC09A90AF7
:100F50000319AA0A0319AB0A0319AC0A2C08A30047
:100F60002B08A2002A08A1002908A00008002100DF
:100F70006D036E04031D0800200069086A04031D48
:100F8000C52F7530BB009030E72F69036A04031D3D
:100F9000CD2F3830BB009030E72F023069066A044D
:100FA000031DD62F6B30BB009030E72F033069064E
:100FB0006A04031DDF2F1530BB009030E72F04308B
:100FC00069066A04031DF72F4730BB009030BC0050
:100FD0008C317C2487310D302000C2004208A200F1
:100FE0008731FB2701302000E9070030EA3D21006E
:100FF000ED01EE010800200022088D31E0250800F7
:1017A600080021009D14080021009D140800200057
:1017B6001814080016302100970008003830210060
:1017C600990098010800640080010131890BE72B1C
:1017D6000034FE0012001E00FE0BED2B003401301B
:1017E60021009D0060309E009B019C01111708009E
:1017F600200021082200E700200020082200E60041
:101806000800200040083F043E0403190800803009
:10181600C0060800200011138C31AA248C317108EF
:101826002200E5007008E4008B31D42308008D31D6
:1018360097258C318B31E1238C318B31DD238C3133
:101846008C3192248C318B31F2238C318C31FE24F5
:1018560008002000A300A201231C352C2008A100AB
:101866002108A2070310A00D0310A30C2308031DD3
:101876002F2C2208080028308D3139258C3108306C
:101886008D3139258C3101308D3139258C31063039
:101896008D3139258C310C308D31392508002000E9
:1018A6002808A0002908A100A2018E30AB002B0851
:1018B600A300A4018F319B2720002008A80021083F
:1018C600A9002208AA0008002000A30022008F1504
:1018D60020002308A2000430A236890B6F2C2208B0
:1018E6008D31BA258C31200023080F398D31BA2568
:1018F60008002000BF01FB30C0000730C1003D30AA
:10190600BD003D08BE003C08AF003B08AE003E30BF
:10191600BD003D08B0003F3082312522080020007E
:1019260098019901EE30970096011708EE00160807
:10193600ED00111021001114D3302000A0000B304F
:10194600A1008B31FB238C318B31DA230800210077
:101956001B08F2000630F236890BAE2C7208F30033
:10196600F4011C08F500F601F535F60DF535F60D12
:1019760073087507F7007408763DF8007708F000DD
:101986007808F1000800200011106E0897006D0815
:10199600960001302200DE000030DF000130CC0767
:1019A6000030CD3D00304D020A3003194C02031CB5
:1019B60008008F314C272200CC01CD010800200001
:1019C600A401A501201CEB2C2208A4072308A53D91
:1019D6000130A235A30D890BEC2C0130A136A00CE9
:1019E600890BF12C20082104031DE52C2508A100F4
:1019F6002408A000080021009112111208302300CB
:101A06009F0090309D0024309E00DF309B00013007
:101A16009C00FD01FC0108302000A00020082200E7
:101A2600E800FB012000EC012100EF0191160800FF
:101A36000830220068020318362D7C08E33E860033
:101A460001308700010823009A000130F000700879
:101A5600FC0708307C020318FC010130F000700816
:101A66002200E80708002100111208002000A30048
:101A760022008F1120002308A2000430A236890B11
:101A8600412D22088D31BA258D31200023080F39CA
:101A96008D31BA258D3106302000A200FB30890B2E
:101AA600522DA20B522D08002000C0004008BF0096
:101AB6003F08C200C301C4013D30BF003F08C1005A
:101AC6003C08AF003B08AE004130BF003F08B00005
:101AD60042308231252220004208860001308700EC
:101AE600810108002000AD01A91F802DA809A909C0
:101AF600A80A0319A90AAD01AD0A2808A0002908F9
:101B0600A100A2018E30AB002B08A3002D08AC006B
:101B16002C08A4008F319B2720002008A80021084C
:101B2600A9002208AA000800220090018F018C015A
:101B36008D018E010F3021009000FF308C008D0149
:101B4600BF308E00FF308F000F3023008D00FF3036
:101B56008F00073090003F308C0008302400900042
:101B6600FF308D002100951322009D010800200002
:101B7600A10022000D08F0392000210722008D0067
:101B860006302000A000FB30890BC72DA00BC72D07
:101B960022000F1006302000A000FB30890BD12D4B
:101BA600A00BD12D22000F140C302000A000F7301E
:101BB600890BDB2DA00BDB2D08002000A1002200E5
:101BC60068080319E22D2100111AEE2D20002108C4
:101BD60023009A00042E111220002108A0007D087F
:101BE600E33E860001308700200881000130A00016
:101BF6002008FD0708307D020318FD010130220090
:101C0600E8022100111608002000280829040319FB
:101C16002F2EAD01AD0AA91B1A2E0130A835A90D2C
:101C2600890B112E0130AC002C08AD070E2E2908A9
:101C36002B02031D202E28082A02031C262E280804
:101C4600AA022908AB3B0130A936A80C890B272E1E
:101C56000130AD02031D1A2E2B08A9002A08A80080
:101C6600080022008F108F110F1460302000A20090
:101C7600BF30890B3C2EA20B3C2E03308D31BA258A
:101C86008E311E302000A200EB30890B482EA20BAD
:101C9600482E03308D31BA258E3106302000A20041
:101CA600FB30890B542EA20B542E03308D31BA25EE
:101CB6008E311E302000A200EB30890B602EA20B65
:101CC600602E02308D31BA2508002000A501A6013C
:101CD600200821040319982EA701A70AA11B7D2E0F
:101CE6000130A035A10D890B742E0130A400240803
:101CF600A707712E0130A535A60D890B7E2E21086A
:101D06002302031D882E20082202031C8F2E200882
:101D1600A2022108A33B25140130A136A00C890B91
:101D2600902E0130A702031D7D2E2608A10025084E
:101D3600A000080023009D1CA22E1D121D161908C6
:101D4600F0007B08DB3E86000130870070088100CA
:101D56000130F0007008FB071908F0007008200039
:101D6600EB0058306B06031DC02EAA3022008D00F2
:101D76000130E0000030E100C92E59306B06031D2A
:101D8600CB2E01302200E2000030E3002000EB0100
:101D960008307B020318FB010130F00070082100B7
:101DA600EF070800BA340B3481340A344934093455
:101DB6008A34083467340734AB340634F0340534D7
:101DC6005E340534CC3404345A340434E8340334F1
:101DD6008C34033431340334E9340234A13402340C
:101DE600673402342D340234F0340134CF340134F4
:101DF600A9340134833401346D3465347234673464
:101E06006534203420342034003468346134683436
:101E1600613420342034203400342000B01F272FB2
:101E26002E09B4002F09B5003009B600B40A03190B
:101E3600B50A0319B60A00303407AE000030353D46
:101E4600AF008030363DB000B31F3D2F3109B400DE
:101E56003209B5003309B600B40A0319B50A0319E5
:101E6600B60A00303407B1000030353DB20080308C
:101E7600363DB3008030B0068030B30633083002FA
:101E8600031D080032082F02031D080031082E0228
:101E9600080001302200DC000030DD000130D407EC
:101EA6000030D53D0130D2070030D33D0130D00798
:101EB6000030D13D0130CE070030CF3D0A30540608
:101EC6005504031D6C2F0130DA000030DB00D4010D
:101ED600D501323052065304031D772F0130D80046
:101EE6000030D900D201D301643050065104031DDD
:101EF600822F0130D6000030D700D001D1019030BA
:101F06004E06031D912F4F03031D912F0130210013
:101F1600ED000030EE002200CE01CF016608670416
:101F26000319080067088A0066080A008F3108004E
:101F3600200023080319A42F220821042004031DCE
:101F4600B52F0030A0000030A1000030A20008002C
:101F56000130A5002508A3070130A236A10CA00C6C
:101F6600890BB02FFE3022050319CE2FAB2F01307F
:101F7600A5002508A3070130A0070030031801308B
:101F8600A107003003180130A2070130A236A10CC8
:101F9600A00C890BC92FFF3022050319DB2FBA2F9E
:101FA6000130A3020130A035A10DA20D890BD62F59
:101FB600A11BE12F023023020318D32F2318E92F88
:101FC600FF30A0057F30A105FF30A2050310A30C4A
:101FD6002308A500A601A7011030A535A60DA70D5B
:101FE600890BF02F2508A0042608A1042708A204BF
:101FF600240803190800A2170800413454342B346E
:1020060043344D34473453343D342234303437343A
:102016003534373434343934343438343234333470
:1020260022340034413454342B3443344E344D344A
:1020360049343D3431342C3432342C3430342C345D
:1020460030342C34303400342034543465346D3418
:102056007034653472343D3425346434203420348D
:1020660020342034203420340034413454342B348A
:102076004334503449344E343D34223431343234CE
:102086003334343422340034413454342B3443341E
:102096005334433453343D342234473453344D346B
:1020A6002234003469347534703469346934203428
:1020B6006D34653472346734653400340134003469
:1020C6000A34003464340034E834033410342734DA
:1020D600413454342B3443344D34473446343D3440
:0A20E6003134003441345434003426
:020000040001F9
:04000E00E2FFFFFE10
:00000001FF
