:0400000080312428FF
:100008007E14803120007F08F1000B1F1528210085
:10001800111E15282000111E152881313921803123
:100028001F280B1F1F282100911E1F282000911E2A
:100038001F288131712171082000FF007E100900FE
:1000480080312628FA01FB01203084000030850029
:1000580013308131E4217E102000803133282000C4
:10006800B7018131CE2180318B170B174730200023
:10007800B6002230B5000D30890B4028B50B40285A
:10008800B60B40280032F830F5008130F600813197
:100098001C2180310D308131EA2180315E30200011
:1000A800B6008230B5006930890B5828B50B58283E
:1000B800B60B5828B130F5008130F60081311C218B
:1000C80080310D308131EA2180315E302000B60068
:1000D8008230B5006930890B6F28B50B6F28B60BD5
:1000E8006F28DA30F5008130F60081311C2180312B
:1000F8000D308131EA2180315E302000B600823037
:10010800B5006930890B8628B50B8628B60B86287A
:10011800C030F5008130F60081311C2180310D306E
:100128008131EA2180315E302000B6008230B5008E
:100138006930890B9D28B50B9D28B60B9D288C30FE
:10014800F5008130F60081311C2180310D3081317C
:10015800EA2180315E302000B6008230B500693077
:10016800890BB428B50BB428B60BB428A130F50018
:100178008130F60081311C2180311A308131EA2129
:1001880080310D308131EA2180310C302000B600F9
:10019800B130B5002B30890BCF28B50BCF28B60B63
:1001A800CF28D528F300200038080319D7282100C4
:1001B800111AE228730823009A00F628111273080E
:1001C800F2007B08283E8600870172088100013012
:1001D800F2007208FB0708307B020318FB010130AC
:1001E8002000B802210011160800220090018F019A
:1001F8008C018D018E010F3021009000FF308C00A2
:100208008D01BF308E00FF308F003F3023008D00FE
:10021800FF308F00073090003F308C0008302400FA
:100228009000FF308D002100951322009D010800E9
:100238007730F70077082000B3007608F8007508D3
:10024800F700F50A0319F60A77088400780885008C
:100258000008F90079082000B400340803190800E0
:1002680034088131EA2181312129083020003802FF
:10027800031853297A08283E8600870101082300BD
:100288009A000130F0007008FA0708307A02031863
:10029800FA010130F00070082000B80708002100BA
:1002A80011120800210091121112083023009F003A
:1002B80090309D0024309E00DF309B0001309C0070
:1002C800FB01FA010830F20072082000B800B20100
:1002D800B101B00121009116080023009D1C762968
:1002E8001D121D161908F00020003208203E860055
:1002F8008701700881000130F0007008B2070830EB
:1003080032020318B2010130F0007008B00708008B
:10031800413454342B3443344D34473453343D340E
:10032800223430343734353437343434393434348F
:100338003834323433342234003473346D34733403
:100348002034643465346C346134203461346E3460
:10035800753474347A3461340034413454342B3471
:100368004334503449344E343D34223431343234F9
:100378003334343422340034413454342B34433449
:100388005334433453343D342234473453344D3496
:10039800223400348031F92081318131EF218131DB
:1003A8008131F4218131813156210800413454349E
:1003B8002B3443344D34473446343D3431340034DF
:1003C800640080010131890BE5290034F4007408C8
:1003D8008031D620080038302100990098010800A3
:0E03E8001630210097000800413454340034D0
:020000040001F9
:04000E00E2FFFFFE10
:00000001FF
