:0400000080312428FF
:100008007E14803120007F08F1000B1F1528210085
:10001800111E15282000111E15288131B5218031A7
:100028001F280B1F1F282100911E1F282000911E2A
:100038001F2881311B2171082000FF007E10090054
:1000480080312628FA01FB01203084000030850029
:10005800183082314D227E1020008031E428613032
:10006800F5008230F6008131982180310D308231DF
:10007800532280315E302000BB008230BA006930E4
:10008800890B4428BA0B4428BB0B44281430F500CC
:100098008230F6008131982180310D30823153222F
:1000A80080315E302000BB008230BA006930890B95
:1000B8005B28BA0B5B28BB0B5B283D30F500823010
:1000C800F6008131982180310D3082315322803100
:1000D8005E302000BB008230BA006930890B72287C
:1000E800BA0B7228BB0B72280230F5008230F6007A
:1000F8008131982180310D308231532280315E3038
:100108002000BB008230BA006930890B8928BA0BFD
:100118008928BB0B89282330F5008230F60081310D
:10012800982180310D308231532208002330F500A8
:100138008230F6008131982180310D30823153228E
:1001480080315E302000BB008230BA006930890BF4
:10015800AB28BA0BAB28BB0BAB28ED30F5008130D0
:10016800F6008131982180310D308231532280315F
:100178005E302000BB008230BA006930890BC2288B
:10018800BA0BC228BB0BC2284730F5008230F600F4
:100198008131982180311A308231532280310D30DB
:1001A8008231532280310C302000BB00B130BA00BC
:1001B8002B30890BDD28BA0BDD28BB0BDD280800A6
:1001C8002000BE0122008D018231312280318B173F
:1001D8000B1747302000BD002230BC000D30890BC2
:1001E800F328BC0BF328BD0BF328003280313320F1
:1001F8008031200032033304031DFD28300331040D
:10020800031DFD2880319A2080312000B201B301FE
:10021800B001B10105302000BD00AD30BC00DD30BB
:10022800890B1429BC0B1429BD0B1429FD282300A4
:100238009D1C20291D121D161908F00020003708E2
:10024800203E86008701700881000130F0007008A8
:10025800B70723001908F00070082000B4005830D0
:100268003406031D4029AA3022008D0001302000E9
:10027800B0000030B100482959303406031D49291F
:100288000130B2000030B300B4010830370203185F
:10029800B7010130F0007008B5070800F30020002E
:1002A8003F08031953292100111A5E2973082300F6
:1002B8009A00722911127308F2007B08283E860002
:1002C8008701720881000130F2007208FB070830CC
:1002D8007B020318FB0101302000BF022100111628
:1002E8000800220090018F018C018D018E010F30D2
:1002F80021009000FF308C008D01BF308E00FF3050
:100308008F003F3023008D00FF308F0007309000B2
:100318003F308C00083024009000FF308D00210011
:10032800951322009D0108007730F7007708200018
:10033800B8007608F8007508F700F50A0319F60AF8
:1003480077088400780885000008F90079082000FB
:10035800B90039080319080039088231532281315C
:100368009D29083020003F020318CF297A08283E2B
:1003780086008701010823009A000130F000700808
:10038800FA0708307A020318FA010130F000700801
:100398002000BF0708002100111208002100911257
:1003A8001112083023009F0090309D0024309E00D9
:1003B800DF309B0001309C00FB01FA010830F2009D
:1003C80072082000BF00B701B601B50121009116DF
:1003D8000800413454342B3443344D3447345334B7
:1003E8003D342234303437343534373434343934C6
:1003F80034343834323433342234003441345434CD
:100408002B3443344E344D3449343D3431342C3458
:1004180032342C3430342C3430342C3430340034EE
:10042800413454342B344334503449344E343D34FD
:1004380022343134323433343434223400344134C5
:1004480054342B3443345334433453343D342234FA
:10045800473453344D34223400348131752182318C
:1004680082315822823182315D2282318131D2211A
:100478000800413454342B3443344D344734463423
:100488003D3431340034683465346C346C346F3442
:100498000034640080010131890B4E2A0034F400D5
:1004A80074088131522108003830210099009801E0
:1004B80008001630210097000800413454340034F5
:020000040001F9
:04000E00E2FFFFFE10
:00000001FF
