:1000000080313C28253400347E14803120007F0864
:10001000F1000B1F15282100111F15282000111FAA
:10002000152894314324803137280B1F21282100C3
:10003000111E21282000111E212895319425803180
:1000400037280B1F2D282100911E2D282000911EDE
:100050002D2889316D21803137280B1F3728210049
:10006000111C37282000111C372888310020710806
:100070002000FF007E10090080313E2822008031E0
:1000800002208031EE00803103208031EF00230018
:10009000943141248031E500943142248031E600DE
:1000A000AD30840096308500203086000230870015
:1000B0002A30943171248031FA01FB0163308400CD
:1000C000003085000C3094316B2480312100EF0129
:1000D0004C308400013085001F3094316B24803116
:1000E000A0308400013085003B3094316B24803196
:1000F000A0308400023085004B3094316B247E1098
:10010000200082313D2A20308600023087002030D6
:100110008400013085002A302000D60016001A0025
:10012000D60B8E28E830DE000330DF000030D80028
:100130000030D9000030DA000030DB000030DC0095
:100140000030DD00A030860002308700A03084003F
:10015000003085004B30D60016001A00D60BAC28B4
:100160002200CA01CB014B08803A2000D600803023
:100170005602031DBE28153022004A020318372AF2
:1001800022004A35203E860001308700403F200093
:10019000D600413FD70055085702031DD128540807
:1001A0005602031C252A22004A35023E203E8600C4
:1001B00001308700403F2000D600413FD70057085C
:1001C0005502031DE52856085402031C252A220067
:1001D0004A35203E8600013087004A35023E203EE7
:1001E000840001308500003F2000D600013FD70089
:1001F000D609D709D60A0319D70A403F5607B000D7
:10020000413F573DB1009431B22480312000300885
:10021000D8003108D9003208DA000030C400C830F4
:10022000C5004130C6005808C7005908C8005A0820
:10023000C90086319D26803120004408DB00450836
:10024000DC004608DD002100EB01EC016C08803A7F
:100250002000D60080305602031D312919302100BC
:100260006B0203189D2903302000D6005608F200C7
:1002700021006B0894318D248031A03E86008701D7
:1002800021006C082000A10021006B082000A000C4
:100290009531D525803120002008B7002108B8000D
:1002A0002208B9005B08B4005C08B5005D08B60020
:1002B0008531E925803120003408C4003508C500A7
:1002C0003608C60094317724803120004408C700E6
:1002D0004508C8004608C90022004A35203E84006F
:1002E00001308500003F2000B000013FB100943193
:1002F000B224803120003008CA003108CB00320817
:10030000CC008431F324803120004708C03F4808E6
:10031000C13F4908C23F01302100EB070030EC3DEE
:100320006C08803A2000D60080305602031D9B29BD
:10033000193021006B02031C33292100ED01EE016D
:100340006E08803A2000D60080305602031DAB298B
:10035000193021006D020318252A03302000D60031
:100360005608F20021006D0894318D248031A03EA2
:1003700086008701403F2000A600413FA700423F82
:10038000A8005508A1005408A0009531D52580315A
:1003900020002008A9002108AA002208AB0088310B
:1003A0001C208031031C132A20005508A10054088A
:1003B000A0009531D525803120002008A600210815
:1003C000A7002208A8000330D6005608F20021003A
:1003D0006D08013E94318D248031A03E8600870156
:1003E000403F2000A900413FAA00423FAB008831B6
:1003F0001C208031031C132A22004B08F3004A08FA
:10040000F2001930F4000030F50095313F258031BD
:1004100021006D0872072000DE0021006E08733D88
:100420002000DF00252A01302100ED070030EE3DDD
:100430006E08803A2000D60080305602031D232A21
:10044000193021006D02031CAD2901302200CA07BA
:100450000030CB3D4B08803A2000D6008030560259
:10046000031D352A153022004A02031CC028200033
:100470005F08D5005E08D40008002300DF01DB011F
:10048000DC01DD01DE018731EE27823121000E1112
:100490008E109431462482318B170B1701308A312C
:1004A000AF22823197312F278231003095310C25D0
:1004B00082312000E000E10160082200D400200029
:1004C00061082200D50001308B31CD2382317708BD
:1004D0002000E6007608E5002200540855040319C0
:1004E000832A540355040319832A01302000E300B2
:1004F0000030E4006308E0006008F200003096314C
:100500001A2682318E2A003095310C258231200046
:10051000E000E1016008E3006108E4002000650AF2
:10052000031D982A660A031D982AE501E601A12AFF
:1005300001308B31CD23823177082000E600760828
:10054000E500650866040319A82A87314627823129
:10055000A7302000A0009830A100883158208231B7
:10056000F201C0308831DD2082316B302000A000E4
:100570009830A1008831582082318E313E26823158
:1005800047302000E1002230E0000D30890BC62A00
:10059000E00BC62AE10BC62A003222008E1401307D
:1005A00097319327823173082300B8007208B7008F
:1005B00000303802C830031937020318F12A22002C
:1005C00056085704031DF12A0130D6000030D70029
:1005D00020006308E0006008F200003096311A261F
:1005E0008231230049034A04031DB22BF20101307A
:1005F0008831DD20823194314C24823194319E2423
:1006000082319431F424823122006903031D0B2BC3
:100610008C313324823194314624823114302000CD
:10062000C4000E30C5003F30C6002930B400FC3095
:10063000B5003F30B60089312421823120002808DE
:10064000B1002708B0009431B22482312000300874
:10065000B7003108B8003208B9008531E925823188
:1006600020003408C7003508C8003608C9008631A4
:100670009D268231200044082300E0002000450828
:100680002300E100200046082300E2006008F20099
:100690006108F3006208F4008D3126258231730869
:1006A0002000D5007208D4008031832082312000E0
:1006B00055082200DB00200054082200DA006E08F2
:1006C000F63E2000E000FF3022006F3D2000E100F8
:1006D00022005B08803A2000E2006108803A620252
:1006E000031D752B600822005A0203187A2B220082
:1006F0000E15962B22006E080A3E2000E000003006
:1007000022006F3D2000E1006108803AE2002200F3
:100710005B08803A20006202031D922B22005A08D7
:10072000200060020318962B22000E1122005908A7
:10073000803A2000E00080306002031DA22B32309E
:10074000220058020318A72B22000C16A92B220006
:100750000C122300C901CA0194314F2482318E3119
:10076000D026823123004D034E04031DBA2B943151
:100770005F2482319631D72682319431DD24823153
:10078000CD2A2000B20020002708AA002608A900D0
:10079000A60A0319A70A290884002A088500000868
:1007A000AB002B08B10031080319F02C25303106BD
:1007B0000319EE2B320A8600870116000104031983
:1007C000042C3108A9002908F400320A86008701A8
:1007D000413F8A00403F0A008331C32BAD01172CF3
:1007E000320A86008701160001040319042C31081F
:1007F000A9002908F400320A86008701413F8A00D7
:10080000403F0A008431C32B20003108A900320880
:1008100086008701010886008701290881000130D0
:10082000A90032088600870129088107C32B270801
:10083000AA002608A900A60A0319A70A2908840005
:100840002A0885000008B100003A0319F02C643A28
:1008500003192E2C0D3A03192E2CF02B2808860094
:10086000870101088400850102308107003FAF0045
:10087000013FB000B01F452C0330A9002908AD048A
:10088000AF09B009AF0A0319B00AB101B10A0530C6
:10089000310603196A2C3108A900AA01A935AA0D4D
:1008A000B5302907840098302A3D8500003FAB0011
:1008B000013FAC002C083002031D602C2B082F02D6
:1008C000031C6A2C0130A9002908B1070530310644
:1008D000031D4B2C2D0803390319942C320A860072
:1008E0008701160001040319822C2D30A900290864
:1008F000F400320A86008701413F8A00403F0A0027
:100900008431942C2D302000A90032088600870104
:10091000010886008701290881000130A9003208FA
:10092000860087012908810720003108A9002908CD
:10093000AE00FF302000A9002908AE072E0A0319D7
:10094000C32B0A30A0000030A1002E08A900AA0184
:10095000A935AA0DB5302907840098302A3D8500B5
:10096000003FF200013FF3003008F5002F08F400CB
:1009700097315F27833173082000A3007208A2001B
:1009800097310227833120002008303EAB002B082E
:10099000B100320A86008701160001040319DD2C1C
:1009A0003108A9002908F400320A86008701413F76
:1009B0008A00403F0A008431992C20003108A900A8
:1009C0003208860087010108860087012908810016
:1009D0000130A90032088600870129088107992C77
:1009E000A601A701080020004708CD004808CE0056
:1009F0004908CF0003104E0D4F0DD0005008D30012
:100A00004A08CD004B08CE004C08CF0003104E0D15
:100A10004F0DD0005008D200530803191B2D520867
:100A200053020318222D5303FF3A5207CD00193009
:100A30004D02031C222D4A08C7004B08C8004C0871
:100A4000C90008005208031908005308520203188D
:100A5000312D5203FF3A5307CD0019304D020318D0
:100A600008000630CD004D08D100C91BD117CC1BA2
:100A70005117C817FF30C705FF30C8050030C9053A
:100A8000CB17FF30CA05FF30CB050030CC0552082C
:100A9000530203186D2D0130CA35CB0DCC0D890BD7
:100AA0004C2D0130D202520853060319682D013033
:100AB000D102510807390319682D4B2D0130C93671
:100AC000C80CC70C890B5F2D0130CD004D08D30732
:100AD000530852060319922D5E2D53085202031833
:100AE000922D0130C735C80DC90D890B722D01300B
:100AF000D3025208530603198E2D0130D10251083A
:100B0000073903198E2D712D0130CC36CB0CCA0C50
:100B1000890B852D0130CD004D08D20753085206B0
:100B2000031D842DD11FA42DFF30C706FF30C8063A
:100B3000FF30C9060130C707003003180130C8076D
:100B4000003003180130C907511FB62DFF30CA0607
:100B5000FF30CB06FF30CC060130CA070030031847
:100B60000130CB07003003180130CC07D101470812
:100B7000CA074808CB3D4908CC3DCC1FD12DFF30DA
:100B8000CA06FF30CB06FF30CC060130CA07003062
:100B900003180130CB07003003180130CC07D10116
:100BA000D10A4A08F2004B08F3004C08F40053083D
:100BB000CD004D08F5005108CE004E08F6008B31EF
:100BC000692372082000C7007308C8007408C900B0
:100BD000080020003408BA003508BB003608BC0005
:100BE00003103B0D3C0DBD003D08BE003E08031D3B
:100BF000002E0030B4000030B5000030B600080010
:100C00003708BA003808BB003908BC0003103B0D98
:100C10003C0DBD003D08C3004308031D162E0030E7
:100C2000B4000030B5000030B600080043087B3E39
:100C3000BA003A08BE073408BA003508BB003608C7
:100C4000BC001030BC36BB0CBA0C890B222E3A0803
:100C5000BD003D08C3003708BA003808BB0039089A
:100C6000BC001030BC36BB0CBA0C890B322E3A08D3
:100C7000BD003D08C3068030BA003A08C305B51769
:100C8000B817FF30B705FF30B8050030B9050030A0
:100C9000BF000030C0000030C1000730BA003A0881
:100CA000C200341C592E3708BF073808C03D390828
:100CB000C13D0130B636B50CB40C890B5A2E01304B
:100CC000B735B80DB90D890B602E0130C202031D76
:100CD000512E0930BA003A08C200341C752E37086C
:100CE000BF073808C03D3908C13D0130B636B50CE4
:100CF000B40C890B762E0130C136C00CBF0C890BA9
:100D00007C2E0130C202031D6D2E3F08F200400808
:100D1000F3004108F4003E08BA003A08F500430821
:100D2000BB003B08F6008B31692372082000B40039
:100D30007308B5007408B600080020004708CA0010
:100D40004808CB004908CC0003104B0D4C0DCD00DA
:100D50004D08D2005208031DB42E0030C4000030EC
:100D6000C5000030C60008004408CA004508CB0092
:100D70004608CC0003104B0D4C0DCD004D08D300A0
:100D80005308031DCA2E0030C4000030C5000030D7
:100D9000C60008000030CF000030D0000030D10085
:100DA00089305307CA004A08D2024708CA004808D7
:100DB000CB004908CC001030CC36CB0CCA0C890BC8
:100DC000DC2E4A08CD004D08D3004408CA0045086F
:100DD000CB004608CC001030CC36CB0CCA0C890BAB
:100DE000EC2E4A08CD004D08D3068030CA004A08D0
:100DF000D305C817FF30C705FF30C8050030C90547
:100E0000C517FF30C405FF30C5050030C6051830D2
:100E1000CA004A08CE000130CF35D00DD10D890B64
:100E20000C2F46084902031D1B2F45084802031DCD
:100E30001B2F44084702031C242F4408C7024508FF
:100E4000C83B4608C93B4F140130C735C80DC90D12
:100E5000890B252F0130CE02031D0B2F4F08F20006
:100E60005008F3005108F4005208CA004A08F5007F
:100E70005308CB004B08F6008B3169237208200021
:100E8000C4007308C5007408C600080001302000C3
:100E900066025E30031965020318C92F2000630340
:100EA0006404031D8B2F0130E5070030E63D22006E
:100EB0008E160E128E110E101E30F200EB30890BC2
:100EC0005F2FF20B5F2F000022008E120E168E1184
:100ED0000E101E30F200EB30890B6C2FF20B6C2FD2
:100EE000000022008E120E128E150E101E30F2001F
:100EF000EB30890B792FF20B792F000022008E1234
:100F00000E128E110E141E30F200EB30890B862F5C
:100F1000F20B862F0000200063086404031D462F97
:100F20000130E5070030E63D22000E148E110E124E
:100F30008E121E30F200EB30890B9C2FF20B9C2F8F
:100F4000000022000E108E150E128E121E30F200BE
:100F5000EB30890BA92FF20BA92F000022000E10F5
:100F60008E110E168E121E30F200EB30890BB62F4A
:100F7000F20BB62F000022000E108E110E128E16EC
:100F80001E30F200EB30890BC32FF20BC32F000091
:100F9000462F22000E108E110E128E125E3020008F
:100FA0006506031DDE2F6603031DDE2F2200D2011E
:100FB000D301D001D1012000E501E60163036404FF
:100FC000031DE52FE301E401080063086404031D29
:100FD00008000130E3000030E40008009531F725F7
:100FE000873194315A248731943152248731953195
:100FF0002425873194318024873195315A25080082
:101000002000111022006C082000970022006B08BD
:101010002000960001302200CE070030CF3D003086
:101020004F020A3003194E02031C08008931B9210E
:101030002200CE01CF0108002000A81F3328260976
:10104000AC002709AD002809AE00AC0A0319AD0AAF
:101050000319AE0A00302C07A60000302D3DA70072
:1010600080302E3DA800AB1F49282909AC002A0971
:10107000AD002B09AE00AC0A0319AD0A0319AE0A84
:1010800000302C07A90000302D3DAA0080302E3DF5
:10109000AB008030A8068030AB062B082802031D69
:1010A00008002A082702031D080029082602080054
:1010B0002000200884002108850012000319080080
:1010C000200020088400210885001200253A031D15
:1010D00087280130A0070030A13D200884002108A6
:1010E00085000008D03EF9007908A200A21B8128E3
:1010F0002208803A783E03188128F201F20A220879
:101100008F28F201F20A25308831DD208831F20182
:10111000F20A200020088400210885000008883198
:10112000DD20883101302000A0070030A13D582883
:10113000F801F51FA228F409F509F40A0319F50AC4
:10114000F801F80AF31FA928F209F309F20A0319B2
:10115000F30A720873040319D028F701F70AF31B86
:10116000BB280130F235F30D890BB2280130F600AF
:101170007608F707AF2873087502031DC1287208A7
:101180007402031CC7287208F4027308F53B01308F
:10119000F336F20C890BC8280130F702031DBB2877
:1011A00078080319D828F409F509F40A0319F50A8F
:1011B0007508F3007408F2000800F7007708F300E0
:1011C0000430F336890BE1287308F4007408F50045
:1011D00077080F39F3007308F6007208031DF3282F
:1011E00020008F11F52820008F150F30890BF6286D
:1011F000000020000F140D08F0397504F300730887
:10120000F80078088D000F30890B042900002000B9
:101210000F100F30890B0A29000020000F140D0851
:10122000F0397604F3007308F80078088D00003276
:10123000003220000F100630F300FB30890B1E290E
:10124000F30B1E29000008002000AC01AD01AE0127
:10125000AF012F08803AA90080302902031D3229EE
:101260000A302E0203185529943146248931003062
:1012700097319327893173082000AB007208AA00C8
:101280002A082C07AC002B082D3DAD000130AE071D
:101290000030AF3D2F08803AA90080302902031D9D
:1012A00053290A302E02031C34290A30F200003080
:1012B000F30020002D08F5002C08F40097315F277B
:1012C00073082300BE007208BD003E082000A8007D
:1012D00023003D082000A700080023009D1C722960
:1012E0001D121D161908F00020006908A03E860096
:1012F00001308700700881000130F0007008E907B4
:1013000023001908F00070082000E7005830670635
:10131000031D902901302200D0000030D100AD29FA
:1013200059306706031D9A2901302200D20000308F
:10133000D300AD2941306706031DA42901302300E5
:10134000D5000030D600AD2942306706031DAF2915
:1013500001302300D3000030D4002000E701083022
:1013600069020318E9010130F00070082100EF075D
:10137000080001302300D1000030D2000130C50741
:101380000030C63D0130C3070030C43D0130C10705
:101390000030C23D0130BF070030C03D0A30450675
:1013A0004604031DD9290130CD000030CE00C5010F
:1013B000C601323043064404031DE4290130CB004A
:1013C0000030CC00C301C401643041064204031D57
:1013D000EF290130C9000030CA00C101C2019030BC
:1013E0003F06031DFC294003031DFC290130C700F3
:1013F0000030C800BF01C00163086404031908007D
:1014000064088A0063080A008A3108002000A101EC
:10141000F31F112AF209F309F20A0319F30AA101D1
:10142000A10AF51F1C2AF409F509F40A0319F50AA3
:101430000130F6007608A106A201A3017208730428
:1014400003194B2AA001A00AF31B302A0130F23500
:10145000F30D890B272A0130F6007608A007242A0D
:101460000130A235A30D890B312A73087502031DC3
:101470003B2A72087402031C422A7208F4027308A1
:10148000F53B22140130F336F20C890B432A01306C
:10149000A002031D302A21080319532AA209A30917
:1014A000A20A0319A30A2308F3002208F200080085
:1014B00020000F1B6A2A7B080339033A0319732A99
:1014C0007B080339F200F20A7B087206FC397206C7
:1014D000FB00732A0F1F732A7B080339033A031991
:1014E000732AFC30FB058F1B892A7B0C890C03397E
:1014F000033A0319932A7B0CF200720C0339F200B1
:10150000F20AF20DF20D7B087206F3397206FB0047
:10151000932A8F1F932A7B0C890C0339033A0319F2
:10152000932AF330FB058F1AA52A7B0E0339033A61
:10153000031908007B0E0339F200F20AF20E7B0851
:101540007206CF397206FB0008008F1E08007B0E62
:101550000339033A03190800CF30FB050800F900EE
:10156000F0302000A0005F30890BB42AA00BB42A11
:10157000F0302000A000200821008D050F108F11F1
:101580008F10F0302000A00020088D050F108F1064
:101590008F110032003220000F142830A0002008E4
:1015A0008D040032003220000F100032003206306D
:1015B0002000A000FB30890BDB2AA00BDB2AF20104
:1015C00028308831DD208A3102302000A1004430EB
:1015D000A0002530890BEA2AA00BEA2AA10BEA2AEF
:1015E000F20106308831DD208A310930890BF62A74
:1015F000F20179080C388831DD208A31183020005A
:10160000A000EF30890B022BA00B022BF20101305E
:101610008831DD20080097312F278B315A30200088
:10162000A0009830A100883158208B31F201C030E1
:101630008831DD208B3120006608A5006508A400F4
:101640000330B2003208A6008D31AD258B31F20196
:10165000C0308831DD208B3134302000A00098303C
:10166000A100883158208B3122006F082000A5008E
:1016700022006E082000A4000230B2003208A6004A
:101680008D31AD258B31DB302000A0009830A100DA
:10169000883158208B3122004D082000A5002200FF
:1016A0004C082000A400A601A60A8D31AD258B317F
:1016B000DD302000A0009830A100883158208B3107
:1016C00012302000B200F330890B642BB20B642B74
:1016D000080075080319712B740873047204031D44
:1016E000822B0030F2000030F3000030F4000800DC
:1016F0000130F7007708F5070130F436F30CF20CEF
:10170000890B7D2BFE30740503199B2B782B013040
:10171000F7007708F5070130F207003003180130B1
:10172000F307003003180130F4070130F436F30CEE
:10173000F20C890B962BFF3074050319A82B872B0D
:101740000130F5020130F235F30DF40D890BA32BB6
:10175000F31BAE2B023075020318A02B7518B62BA5
:10176000FF30F2057F30F305FF30F4050310F50C70
:101770007508F700F801F9011030F735F80DF90D8B
:10178000890BBD2B7708F2047808F3047908F40478
:10179000760803190800F41708002000A80028089C
:1017A000033E95310C258B312000A000A101A20140
:1017B000A3012308A7002208A6002108A5002008ED
:1017C000A4000830A435A50DA60DA70D890BE22BAA
:1017D0002808023E95310C258B312000A000A10184
:1017E000A201A3012008A4072108A53D2208A63DC7
:1017F0002308A73D0830A435A50DA60DA70D890B1C
:10180000FB2B2808013E95310C258B312000A000D0
:10181000A101A201A3012008A4072108A53D2208D7
:10182000A63D2308A73D0830A435A50DA60DA70D9C
:10183000890B142C280895310C252000A000A1014B
:10184000A201A3012008A4072108A53D2208A63D66
:101850002308A73D2708F9002608F8002508F70007
:101860002408F60008009731C8278C312000A0001A
:101870002008ED009731C8278C312000A0002008F7
:101880002200E7009731C8278C312000A0002008F3
:10189000EC009731C8278C312000A00020082200DE
:1018A000E8009731C8278C312000A00020082200D2
:1018B000E30068082000A000A1016C08A200A301B9
:1018C0006D08220067072000A400A501A50D2208CD
:1018D0002407A6002308253DA70020082607A80006
:1018E0002108273DA900FF302805AA00003029055E
:1018F000AB00220063082000AC00AD012B082D06D0
:10190000031D842C2A082C06031D912C6C08A000B2
:1019100020082200E50020006D08A0002008220019
:10192000E40020006D08A000A1012008F6002108B5
:10193000F7006D08A000A10120082200D8002000B7
:1019400021082200D900080097312F278C310A3056
:10195000F2000030F30022005B08F5005A08F400A2
:10196000883198208C3172082000B20032082200A1
:10197000E0000A30F2000030F3005B08F5005A087E
:10198000F4008A3106228C3172082000B20032083D
:101990002200E100F201B0308831DD208C31F90104
:1019A000003096313D268C31CF302000A000983099
:1019B000A100883158208C31220061082000B2003B
:1019C000B3013208A4003308A5000230B400340883
:1019D000A6008D31AD258C31DB302000A000983081
:1019E000A100883158208C31220060082000B2000C
:1019F000B3013208A4003308A500A601A60A8D3160
:101A0000AD258C31D8302000A0009830A10088315D
:101A100058208C31F201C0308831DD208C31C93042
:101A20002000A0009830A100883158208C3122007D
:101A300059082000A500220058082000A400033007
:101A4000B2003208A6008D31AD2508007208F600FC
:101A50007308F7007408F8000310770D780DF9008B
:101A600079082000A5002508031D3F2D0030F50052
:101A70000030F4000030F3000030F200080072087B
:101A8000F6007308F7007408F8001730F836F70C02
:101A9000F60C890B462D7608F9007908A000F3179B
:101AA000FF30F205FF30F3050030F4057208A100A5
:101AB0007308A2007408A300A4018E30A502A51F1C
:101AC0007D2D2508803A8F3E03186F2D0030F500DC
:101AD0000030F4000030F3000030F2000800013064
:101AE000A436A30CA20CA10C890B702D0130F600BA
:101AF0007608A5070319962D6F2D18302502031CB3
:101B0000932D0030F5000030F4000030F300003079
:101B1000F20008000130A135A20DA30DA40D890B20
:101B20008B2D0130A5022508031D8A2D20080319DD
:101B3000A42DA109A209A309A409A10A0319A20AB3
:101B40000319A30A0319A40A2408F5002308F400C2
:101B50002208F3002108F2000800B03086000130AE
:101B60008700293084000030850005302000A70060
:101B700016001A00A70BB82D0430B0000030B100D9
:101B8000AE01AF01A51FD02DF201F20A2D30883130
:101B9000DD208D312000A409A509A40A0319A50A96
:101BA000240825040319FD2D0A30F2000030F3004B
:101BB0002508F5002408F400883198208D3172083A
:101BC0002000A7003008293E8600870127088100F1
:101BD0000A30F2000030F3002508F5002408F40074
:101BE0008A3106228D3173082000A5007208A400F6
:101BF000FF30B007FF30B13DD02D260A0319052E66
:101C00000D2E0130AE070030AF3D2E08293E860074
:101C100087010108031D1D2E012E2608A700A8011B
:101C2000A71BA803A709A809A70A0319A80A270838
:101C3000053EAE000030283DAF002F08B1002E0851
:101C4000B0003108803AA70080302702031D2A2EF9
:101C50000530300203180800F201F20A20003008B3
:101C6000293E860087010108303E8831DD208D3114
:101C700001302000B0070030B13D212ED5302000CA
:101C8000B3009830B4009431C7248E310D30200059
:101C9000BA003A08F400943156248E3147302000BF
:101CA000BB002230BA000D30890B542EBA0B542ED3
:101CB000BB0B542E00327B302000B3009830B400B0
:101CC0009431C7248E310D302000BA003A08F40058
:101CD000943156248E3175302000BB00E230BA00BA
:101CE000C430890B712EBA0B712EBB0B712E000004
:101CF000BF302000B3009830B4009431C7248E3137
:101D00000D302000BA003A08F400943156248E3188
:101D100075302000BB00E230BA00C430890B8E2E33
:101D2000BA0B8E2EBB0B8E2E000015302000B30098
:101D30009830B4009431C7248E310D302000BA00A1
:101D40003A08F400943156248E3175302000BB00DF
:101D5000E230BA00C430890BAB2EBA0BAB2EBB0BF2
:101D6000AB2E000099302000B3009830B4009431BD
:101D7000C7248E310D302000BA003A08F4009431A7
:101D800056248E3175302000BB00E230BA00C430DA
:101D9000890BC82EBA0BC82EBB0BC82E000008003A
:101DA0004030963186268E31013A031D0C2F0030CB
:101DB00095310C258E312000B500B6013508E300C1
:101DC0003608E40097312F278E3149302000A000DB
:101DD0009830A100883158208E31F201C03088310E
:101DE000DD208E3120006608A5006508A4000330C0
:101DF000B5003508A6008D31AD258E3187314627D7
:101E00008E3120006308B5003508F20000309631AD
:101E10001A268E31FA095B2F8030963186268E3154
:101E2000013A031D152F0130162F00302000B50098
:101E30007A08031D1D2F01301E2F00303505003894
:101E40000319322F01302200CC070030CD3D0A307B
:101E50004C064D04031D5B2FCC01CD010130EE0774
:101E600000305A2F2030963186268E31013A031DDC
:101E70003B2F01303C2F00302000B5007A08031DB5
:101E8000432F0130442F00303505003803195B2FF4
:101E9000FF302200CC07FF30CD3D4C0A031D5B2FE5
:101EA0004D0A031D5B2F0930CC000030CD00FF3000
:101EB000EE07FF30EF3D7A080319612F8C31A4241F
:101EC00008007A08031D08008B310B23080022004C
:101ED0005D082000BD003D08BF0022005C08200016
:101EE000BD003D08C0009930B3009830B400943173
:101EF000C7248F310D302000BD003D08F40094311F
:101F000056248F3105302000BE00AD30BD00DD30DD
:101F1000890B882FBD0B882FBE0B882F0030200027
:101F2000B3009830B4009431C7248F310D302000B5
:101F3000BD003D08F400943156248F310F3020004D
:101F4000BE000730BD009A30890BA42FBD0BA42F13
:101F5000BE0BA42F000038302000B3009830B4002E
:101F600022005B082000B60022005A082000B500BD
:101F70003F30953177258F313F302000B30000305E
:101F8000B4009431C7248F3127302000B30098303B
:101F9000B4006D08BD00BE013D08B5003E08B600A6
:101FA0004030953177258F3140302000B30000302C
:101FB000B4009431C7248F310A302000BE005A305B
:101FC000BD00BB30890BE22FBD0BE22FBE0BE22F11
:101FD00000321A302000BD003D08F4009431562430
:101FE0008F310D302000BD003D08F400943156249F
:101FF0002300B501B601D501D601D301D4010800F3
:1028800008001434003420001113080021009D14A6
:102890000800200018140800210011100800210071
:1028A00011140800163021009700080074089631B2
:1028B00061260800783021009900980108008A31CB
:1028C000582294319531B425080073082300E400A0
:1028D0007208E3000800640080010131890B6C2C50
:1028E0000034FE0012001E00FE0B722C003420008B
:1028F000460845044404031908008030C606080051
:10290000013021009D0043309E009B019C014A3014
:1029100022009700210011170800F500F401751C32
:10292000952C7208F3007308F4070310F20D0310DE
:10293000F50C7508031D8F2C7408080021000F1179
:1029400020000F116C30F200B730890BA52CF20B70
:10295000A52C000020000F152E30890BAD2C210076
:102960000F15080020003008F2003108F300F401D0
:102970008E30B3003308F500F6018B3169237208FD
:102980002000B0007308B1007408B20008002000F5
:10299000B7015630B8001430B9003530B5003508ED
:1029A000B6003408A7003308A6003630B500350855
:1029B000A80037308331C123080023005503560493
:1029C000031D080053035404031D080097312F27EB
:1029D00094318A302000A0009830A100883158201E
:1029E00094318F31672708002200E9013D30890BBF
:1029F000F72C000020000F1908007A30890BFE2CFC
:102A0000003220000F1D072D2200E901E90A3D30A8
:102A1000890B082D00000800F500640023009518BC
:102A20000D2D7508F200F3017208910073089200F1
:102A30003F30F4007408950515140310151803149D
:102A40000030093D13080800200098019901EE307C
:102A50009700960117082200EC00200016082200BB
:102A6000EB0020001110210011144030F20014304E
:102A7000F300943165249531943149240800F6011E
:102A8000F701721C472D7408F6077508F73D0130F1
:102A9000F435F50D890B482D0130F336F20C890B16
:102AA0004D2D72087304031D412D7708F30076083D
:102AB000F2000800210091121112083023009F003B
:102AC00090309D0024309E00DF309B0001309C0040
:102AD0002000EB01EA010830F20072082200ED004C
:102AE0002000E901E8012100EF0191160800200013
:102AF000B8003808B7003708BA00BB01BC01353050
:102B0000B7003708B9003408A7003308A6003930E9
:102B1000B7003708A8003A308331C12320003A08B3
:102B20008600870181010800083022006D02031829
:102B3000B12D20006A08A83E8600013087000108F8
:102B400023009A000130F00070082000EA070830E6
:102B50006A020318EA010130F00070082200ED0754
:102B6000080021001112080020000F1FBF2D7B0854
:102B70000339033A031DBF2D6E14FC30FB058F1F74
:102B8000CA2D7B0C890C0339033A031DCA2DEE14A0
:102B9000F330FB058F1E08007B0E0339033A031D3B
:102BA00008006E15CF30FB0508002000A501A11F0D
:102BB000E02DA009A109A00A0319A10AA501A50AEF
:102BC0002008F2002108F300F4018E30A30023084E
:102BD000F5002508A4002408F6008B31692372084B
:102BE0002000A0007308A1007408A20008002200C1
:102BF00090018F018C018D018E010F30210090001A
:102C0000EF308C008D0186308E00F4308F000F3055
:102C100023008D0010308F00073090002F308C0083
:102C2000083024009000FF308D0021009513220011
:102C30009D010800F500230095181B2E7508F30070
:102C4000F4017308910074089200720893003F30F9
:102C5000F30073089505200003108B1B03148B13DE
:102C60002300151555309600AA30960095141511BD
:102C70002000031C08008B1708002000A10014305E
:102C80002102031808004D2E21175B2E1430492E07
:102C90005430A0002008A1075B2E7908003A0319E0
:102CA0005B2E013A0319442E033A0319462E013ACA
:102CB0000319482E5B2EA117F20121088831DD206F
:102CC0000800F30022006D080319622E2100111A7A
:102CD0006D2E730823009A00832E11127308F200E0
:102CE00020006B08A83E8600013087007208810032
:102CF0000130F2007208EB0708306B020318EB0199
:102D000001302200ED02210011160800F200F3014B
:102D1000A02E003020006E180130F3006E10AB2E94
:102D200000302000EE180130F300EE10AB2E003022
:102D300020006E190130F3006E11AB2EF301AB2EA3
:102D40007208203A0319972E603A0319892EC03A67
:102D50000319902E9E2E73080800BA340B34813468
:102D60000A34493409345834083467340734AB34EE
:102D70000634F03405345E340534CC3404345A342B
:102D80000434E83403348C34033431340334E93408
:102D90000234A1340234673402342D340234FE3458
:102DA0000134CF340134A73401347F34013422009C
:102DB00050035104031D080052035304031D08006F
:102DC000003095310C2596312000A300A401230882
:102DD000E3002408E40097312F2796314930200082
:102DE000A0009830A10088315820963187314627BD
:102DF000963120006308A3002308F20000309631CA
:102E00001A26080020002008210403192A2FA501F2
:102E1000A50AA11B152F0130A035A10D890B0C2F80
:102E20000130A4002408A507092F21082302031D4F
:102E30001B2F20082202031C212F2008A202210898
:102E4000A33B0130A136A00C890B222F0130A50233
:102E5000031D152F2308A1002208A000080021004F
:102E60008D0103302000A1005730A0006D30890B88
:102E7000372FA00B372FA10B372FF20102308831EB
:102E8000DD209731F20128308831DD209731F201C1
:102E900001308831DD209731F2010C308831DD209E
:102EA0009731F20106308831DD2097310F30890BE0
:102EB000572F0000F20101308831DD200800F801B1
:102EC000F9017208730403198E2FF701F70AF31B37
:102ED000732F0130F235F30D890B6A2F0130F600A4
:102EE0007608F707672F0130F835F90D890B742F35
:102EF00073087502031D7E2F72087402031C852F50
:102F00007208F4027308F53B78140130F336F20CC2
:102F1000890B862F0130F702031D732F7908F30008
:102F20007808F2000800F40074082000A000A00D4A
:102F3000A00D21001D082000200683392006210055
:102F40009D001D140730890BA32F003221009D1412
:102F50009D18A82F1B082000A0000630A036890B62
:102F6000AE2F2008A100A20121001C082000A30010
:102F7000A401A335A40DA335A40D21082307A500A2
:102F80002208243DA6002508F2002608F3000800C8
:102F9000F501083075020318FE2F20000F1DCD2FFC
:102FA0002E30890BD12F20000F19E62F0130F200AF
:102FB0007503FF3A073E890ADE2FF235890BDD2FB4
:102FC0007208FF3AF3007308F405F62F0130F2009F
:102FD0007503FF3A073E890AEE2FF235890BED2F74
:102FE0007208F3007308F4040F19F42F0130F20093
:102FF0007208F50708307502031CCD2F740808000D
:10300000413454342B3443344D34473453343D34F9
:10301000223430343734353438343434323436347E
:1030200039343234393422340034413454342B347A
:1030300043344E344D3449343D3431342C343234FD
:103040002C3430342C3430342C34303400342034AC
:1030500055346D34693464343D342534643420345B
:1030600020342034203420342034203420340034E0
:103070002034543465346D347034653472343D34E6
:103080002534643420342034203420342034203457
:103090000034203449346E3474346F346134723403
:1030A000633465347234653420346F34753461347C
:1030B000213400342034543465346D347034203479
:1030C0007334653474346134743420346534733447
:1030D00074346534003420342034203469346E3440
:1030E00069347434693461346C3469347A346534E5
:1030F000203420340034413454342B34433450349D
:1031000049344E343D342234303430343034303469
:103110002234003420345434723469346D346934C8
:103120007434653472346534203473346D347334DC
:103130000034413454342B34433453344334533403
:103140003D342234473453344D3422340034203457
:103150002034203457346134693474342034663474
:103160006F347234203420340034013400340A3493
:10317000003464340034E8340334103427344134E8
:1031800054342B3443344D34473446343D34313495
:10319000003455346D34693464343D34003454346F
:1031A00065346D3470343D3400344134543400346B
:0E31B0004334203400342E34003443340034D1
:020000040001F9
:04000E00E2F9FFFE16
:00000001FF
