:0400000080312428FF
:100008007E14803120007F08F1000B1F1528210085
:10001800111E15282000111E15288131AB218031B1
:100028001F280B1F1F282100911E1F282000911E2A
:100038001F288131112171082000FF007E1009005E
:1000480080312628FA01FB01203084000030850029
:100058001830823143227E1020008031DA28573050
:10006800F5008230F60081318E2180310D308231E9
:10007800492280315E302000BB008230BA006930EE
:10008800890B4428BA0B4428BB0B44280A30F500D6
:100098008230F60081318E2180310D308231492243
:1000A80080315E302000BB008230BA006930890B95
:1000B8005B28BA0B5B28BB0B5B283330F50082301A
:1000C800F60081318E2180310D3082314922803114
:1000D8005E302000BB008230BA006930890B72287C
:1000E800BA0B7228BB0B7228F830F5008130F60085
:1000F80081318E2180310D308231492280315E304C
:100108002000BB008230BA006930890B8928BA0BFD
:100118008928BB0B892808001930F5008230F600C1
:1001280081318E2180310D308231492280315E301B
:100138002000BB008230BA006930890BA128BA0BB5
:10014800A128BB0BA128E330F5008130F6008131EE
:100158008E2180310D308231492280315E3020007D
:10016800BB008230BA006930890BB828BA0BB828AE
:10017800BB0BB8283D30F5008230F60081318E2166
:1001880080311A308231492280310D308231492242
:1001980080310C302000BB00B130BA002B30890B05
:1001A800D328BA0BD328BB0BD32808002000BE01E4
:1001B80022008D018231272280318B170B1747309F
:1001C8002000BD002230BC000D30890BE928BC0B93
:1001D800E928BD0BE9280032803133208031200026
:1001E80032033304031DF32830033104031DF328BD
:1001F8008031902080312000B201B301B001B101FB
:1002080005302000BD00AD30BC00DD30890B0A2967
:10021800BC0B0A29BD0B0A29F32823009D1C1629AB
:100228001D121D161908F00020003708203E860010
:100238008701700881000130F0007008B7072300BB
:100248001908F00070082000B40058303406031D67
:100258003629AA3022008D0001302000B00000307D
:10026800B1003E2959303406031D3F290130B20040
:100278000030B300B401083037020318B701013069
:10028800F0007008B5070800F30020003F080319C4
:1002980049292100111A5429730823009A00682952
:1002A80011127308F2007B08283E86008701720845
:1002B80081000130F2007208FB0708307B02031846
:1002C800FB0101302000BF022100111608002200A6
:1002D80090018F018C018D018E010F30210090005B
:1002E800FF308C008D01BF308E00FF308F003F3013
:1002F80023008D00FF308F00073090003F308C00C6
:10030800083024009000FF308D0021009513220052
:100318009D0108007730F70077082000B8007608BC
:10032800F8007508F700F50A0319F60A770884003B
:10033800780885000008F90079082000B900390814
:10034800031908003908823149228131932908307C
:1003580020003F020318C5297A08283E8600870135
:10036800010823009A000130F0007008FA070830ED
:100378007A020318FA010130F00070082000BF0764
:1003880008002100111208002100911211120830F2
:1003980023009F0090309D0024309E00DF309B009A
:1003A80001309C00FB01FA010830F20072082000BD
:1003B800BF00B701B601B50121009116080041340C
:1003C80054342B3443344D34473453343D3422347D
:1003D80030343734353437343434393434343834C9
:1003E8003234333422340034413454342B344334DB
:1003F8004E344D3449343D3431342C3432342C3479
:1004080030342C3430342C343034003441345434C7
:100418002B344334503449344E343D34223431344F
:1004280032343334343422340034413454342B34A9
:1004380043345334433453343D34223447345334EF
:100448004D342234003481316B21823182314E2285
:1004580082318231532282318131C82108004134EE
:1004680054342B3443344D34473446343D343134DA
:100478000034683465346C346C346F340034640090
:1004880080010131890B442A0034F4007408813159
:1004980048210800383021009900980108001630DA
:0C04A80021009700080041345434003457
:020000040001F9
:04000E00E2FFFFFE10
:00000001FF
