:0400000080313028F3
:100008007E14803120007F08F1000B1F1528210085
:10001800111E15282000111E152882314A22803110
:100028002B280B1F21282100911E21282000911E1A
:1000380021288131822180312B280B1F2B28210078
:10004800111C2B282000111C2B28823199227108A1
:100058002000FF007E1009008031322883313B23C5
:100068008031DB0083313C238031DC00FA01FB0165
:100078002030840000308500313083311B237E100E
:1000880020008131B929013020005C022C3003198D
:100098005B020318D92846034704031DD9283203F5
:1000A8003304031D96280130DB070030DC3D7A0855
:1000B800031D66280130F2007208FA0722000E14A8
:1000C8008E1170287A03031D72280130F20072081D
:1000D800FA0722000E108E150E127E2802307A06BC
:1000E800031D80280130F2007208FA0722000E1062
:1000F8008E110E168E12922803307A06031D8E2852
:100108000130F2007208FA0722000E108E110E124A
:100118008E16922804307A060319FA012000C601C7
:10012800C701080032083304031D08000130DB074B
:100138000030DC3D7A08031DA9280130F20072085E
:10014800FA0722008E160E12B3287A03031DB5286B
:100158000130F2007208FA0722008E120E168E1174
:10016800C12802307A06031DC3280130F200720844
:10017800FA0722008E120E128E150E10D5280330A3
:100188007A06031DD1280130F2007208FA0722000E
:100198008E120E128E110E14D52804307A06031909
:1001A800FA012000C601C70108002C305B06031DB8
:1001B80008005C03031D0800CA01CB01C801C9017E
:1001C800DB01DC0132033304031DED28B201B30166
:1001D800F52832083304031DF5280130B200003039
:1001E800B300FA01080001302000C6000030C70043
:1001F8000130BC070030BD3D0130BA070030BB3DBF
:100208000130B8070030B93D0130B6070030B73DBE
:100218000A303C063D04031D17290130C400003094
:10022800C500BC01BD0132303A063B04031D22293A
:100238000130C2000030C300BA01BB016430380687
:100248003904031D2D290130C0000030C100B80158
:10025800B90190303606031D3A293703031D3A29A0
:100268000130BE000030BF00B601B701510852048A
:100278000319080052088A0051080A008131080051
:1002880020003E033F04031D080030083104031D0D
:1002980051293530F5008330732930033104031DAB
:1002A8005929D730F50082307329023030063104DD
:1002B800031D62291130F50083307329033030069D
:1002C8003104031D6B29C530F500823073290430D1
:1002D80030063104031D7F29F530F5008230F60021
:1002E80082312D2281310D308331272301302000C6
:1002F800B0070030B13DBE01BF01080023009D1CBE
:1003080087291D121D161908F00020004F08203EED
:1003180086008701700881000130F0007008CF075F
:1003280023001908F00070082000CC0058304C0653
:10033800031DA729AA3022008D0001302000C80023
:100348000030C900AF2959304C06031DB0290130CF
:10035800CA000030CB00CC0108304F020318CF018F
:100368000130F0007008CD0708002000DA01823162
:10037800E622813121000E108E110E128E128B177B
:100388000B1747302000D9002230D8000D30890BD8
:10039800CB29D80BCB29D90BCB290032013020002F
:1003A800B2000030B300813144218131200048037C
:1003B8004904031DD7294A034B04031DD72980315B
:1003C80047208131D729F300200055080319E8296F
:1003D8002100111AF329730823009A00072A111221
:1003E8007308F2007B08283E8600870172088100A6
:1003F8000130F2007208FB0708307B020318FB018A
:1004080001302000D50221001116080022009001B9
:100418008F018C018D018E010F3021009000FF307B
:100428008C008D01BF308E00FF308F000F3023000D
:100438008D00FF308F00073090003F308C0008306F
:1004480024009000FF308D002100951322009D01AB
:1004580008007730F70077082000D6007608F80003
:100468007508F700F50A0319F60A77088400780872
:1004780085000008F90079082000D70057080319FB
:1004880008005708833127238231322A0830200098
:1004980055020318642A5008283E8600870101087F
:1004A80023009A000130F00070082000D0070830BF
:1004B80050020318D0010130F0007008D507080079
:1004C8002100111208002100911211120830230096
:1004D8009F0090309D0024309E00DF309B0001304B
:1004E8009C00FB012000D0010830F2007208D50002
:1004F800CF01CE01CD0121009116080020009801FE
:100508009901EE30970096011708D4001608D30019
:100518001110210011143D30F2000330F300833133
:100528002123823183313823080020001110540818
:100538009700530896000130B4070030B53D0030ED
:1005480035020A3003193402031C08008031F720F1
:100558002000B401B5010800413454342B3443342D
:100568004D34473453343D34223430343734353401
:10057800373434343934343438343234333422343C
:100588000034413454342B3443344E344D344934DC
:100598003D3431342C3432342C3430342C3430342F
:1005A8002C3430340034413454342B3443345034F4
:1005B80049344E343D3422343134323433343434D3
:1005C8002234003482310A22823183312C23823151
:1005D8008331312382318231822282318231672212
:1005E8000800413454342B344334533443345334A3
:1005F8003D342234473453344D342234003470347B
:1006080075346C3469346334693463346134203448
:100618006D346934633461340034413454342B34D8
:1006280043344D34473446343D3431340034640067
:1006380080010131890B1C2B003473082000D20083
:100648007208D1000800F40074088131E72108001D
:1006580038302100990098010800163021009700D1
:1006680008004134543400342000181408000134C0
:040678000034080042
:020000040001F9
:04000E00E2FFFFFE10
:00000001FF
