:1000000080313C28013400347E14803120007F0888
:10001000F9000B1F15282100111F15282000111FA2
:1000200015288D31A825803137280B1F2128210064
:10003000111E21282000111E21288E318926803191
:1000400037280B1F2D282100911E2D282000911EDE
:100050002D2887315727803137280B1F372821005B
:10006000111C37282000111C37288E3151267908A1
:100070002000FF007E10090080313E2822008031E0
:1000800002208031EC00803103208031ED00893086
:1000900084008F308500A0308600013087003B301F
:1000A0008D3187258031FA01FB01FC01FD016630AD
:1000B00084000030850007308D318125803121009A
:1000C000ED01EE014A3084000130850020308D3191
:1000D00081258031DB3084000130850010308D3186
:1000E0008125803120308400023085004B308D31F5
:1000F00081257E1020008531352DA030860001300D
:10010000870020308400013085002A302000D00094
:1001100016001A00D00B8828E830D8000330D90028
:100120000030D2000030D3000030D4000030D500C1
:100130000030D6000030D700203086000230870023
:10014000A0308400003085004B30D00016001A002B
:10015000D00BA6282100EB01EC016C08803A2000AE
:10016000D00080305002031DB828133021006B02EC
:100170000318212A21006B35203E860001308700BC
:10018000403F2000D000413FD1004F085102031DE5
:10019000CB284E085002031C0F2A21006B35023E6B
:1001A000203E860001308700403F2000D000413FC4
:1001B000D10051084F02031DDF2850084E02031CD6
:1001C0000F2A21006B35203E8600013087006B35F9
:1001D000023E203E840001308500003F2000D00018
:1001E000013FD100D009D109D00A0319D10A403FFB
:1001F0005007A800413F513DA9008D31ED258031C8
:1002000020002808D2002908D3002A08D400003092
:10021000BE00C830BF004130C0005208C1005308C2
:10022000C2005408C30084318C24803120003E0871
:10023000D5003F08D6004008D700DA01DB015B0893
:10024000803AD00080305002031D282919305A020C
:1002500003188D2903302000D0005008A0005A0850
:100260008D31C7258031A03E8600870120005B08C4
:10027000A9005A08A8008E31C52680312000280820
:10028000B1002908B2002A08B3005508AE0056088C
:10029000AF005708B0008331D823803120002E08EA
:1002A000BE002F08BF003008C0008D319F2580316F
:1002B00020003E08C1003F08C2004008C3002100E2
:1002C0006B35203E840001308500003F2000A800EF
:1002D000013FA9008D31ED25803120002808C400A0
:1002E0002908C5002A08C600823127228031200053
:1002F0004108C03F4208C13F4308C23F0130DA070E
:100300000030DB3D5B08803AD00080305002031D96
:100310008B2919305A02031C2A292000DC01DD0137
:100320005D08803AD00080305002031D99291930B1
:100330005C0203180F2A03302000D0005008A000F0
:100340005C088D31C7258031A03E86008701403F83
:100350002000AE00413FAF00423FB0004F08A9006F
:100360004E08A8008E31C526803120002808B10033
:100370002908B2002A08B3008F31C4278031031C3A
:10038000FF2920004F08A9004E08A8008E31C5267D
:10039000803120002808AE002908AF002A08B000EC
:1003A0000330D0005008A0005C08013E8D31C72505
:1003B0008031A03E86008701403F2000B100413FD0
:1003C000B200423FB3008F31C4278031031CFF29A4
:1003D00021006C082000A10021006B082000A00073
:1003E0001930A2000030A3008E316D26803120002C
:1003F0005C082007D8005D08213DD9000F2A013094
:100400002000DC070030DD3D5D08803AD000803000
:100410005002031D0D2A19305C02031C9B29013078
:100420002100EB070030EC3D6C08803A2000D00042
:1004300080305002031D1F2A133021006B02031C61
:10044000BA2820005908CF005808CE000800200024
:100450004108C7004208C8004308C9000310480DFE
:10046000490DCA004A08CD004408C7004508C80025
:100470004608C9000310480D490DCA004A08CC00BF
:100480004D0803194F2A4C084D020318562A4D03F4
:10049000FF3A4C07C70019304702031C562A44088C
:1004A000C1004508C2004608C30008004C080319F3
:1004B00008004D084C020318652A4C03FF3A4D070B
:1004C000C70019304702031808000630C700470864
:1004D000CB00C31BCB17C61B4B17C217FF30C10580
:1004E000FF30C2050030C305C517FF30C405FF301B
:1004F000C5050030C6054C084D020318A12A01307D
:10050000C435C50DC60D890B802A0130CC024C08BC
:100510004D0603199C2A0130CB024B0807390319F9
:100520009C2A7F2A0130C336C20CC10C890B932A46
:100530000130C7004708CD074D084C060319C62AED
:10054000922A4D084C020318C62A0130C135C20D4B
:10055000C30D890BA62A0130CD024C084D060319A4
:10056000C22A0130CB024B0807390319C22AA52A37
:100570000130C636C50CC40C890BB92A0130C7003E
:100580004708CC074D084C06031DB82ACB1FD82AB4
:10059000FF30C106FF30C206FF30C3060130C1077D
:1005A000003003180130C207003003180130C307C0
:1005B0004B1FEA2AFF30C406FF30C506FF30C606CF
:1005C0000130C407003003180130C507003003189C
:1005D0000130C607CB014108C4074208C53D4308A6
:1005E000C63DC61F052BFF30C406FF30C506FF30D1
:1005F000C6060130C407003003180130C5070030BB
:1006000003180130C607CB01CB0A4408A0004508F7
:10061000A1004608A2004D08C7004708A3004B08E8
:10062000C8004808A40086314E2620002008C100DA
:100630002108C2002208C3000800013022006D0218
:100640002C3003196C020318B92B5C035D04031DE5
:10065000B92B200068036904031D712B01302200AF
:10066000EC070030ED3D7A08031D3F2B01302000E0
:10067000A0002008FA0722000E148E114A2B7A03DC
:10068000031D4C2B01302000A0002008FA07220097
:100690000E108E150E12592B02307A06031D5B2B9D
:1006A00001302000A0002008FA0722000E108E1151
:1006B0000E168E126E2B03307A06031D6A2B013044
:1006C0002000A0002008FA0722000E108E110E1242
:1006D0008E166E2B04307A060319FA01DC01DD0157
:1006E0000800200068086904031D0800013022008A
:1006F000EC070030ED3D7A08031D872B0130200008
:10070000A0002008FA0722008E160E12922B7A0300
:10071000031D942B01302000A0002008FA072200BE
:100720008E120E168E11A12B02307A06031DA32BFA
:1007300001302000A0002008FA0722008E120E12BD
:100740008E150E10B62B03307A06031DB22B013026
:100750002000A0002008FA0722008E120E128E112F
:100760000E14B62B04307A060319FA01DC01DD0100
:1007700008002C306C06031D08006D03031D0800E3
:10078000E601E701E401E501EC01ED012000680369
:100790006904031DCE2BE801E901D62B6808690422
:1007A000031DD62B0130E8000030E900FA010800F3
:1007B00020002E08B4002F08B5003008B600031042
:1007C000350D360DB7003708B8003808031DEF2B7C
:1007D0000030AE000030AF000030B000080031083B
:1007E000B4003208B5003308B6000310350D360DDD
:1007F000B7003708BD003D08031D052C0030AE00D2
:100800000030AF000030B00008003D087B3EB4006F
:100810003408B8072E08B4002F08B5003008B60019
:100820001030B636B50CB40C890B112C3408B70057
:100830003708BD003108B4003208B5003308B600EF
:100840001030B636B50CB40C890B212C3408B70027
:100850003708BD068030B4003408BD05AF17B217A5
:10086000FF30B105FF30B2050030B3050030B900EC
:100870000030BA000030BB000730B4003408BC00C0
:100880002E1C482C3108B9073208BA3D3308BB3D4D
:100890000130B036AF0CAE0C890B492C0130B135AC
:1008A000B20DB30D890B4F2C0130BC02031D402C3F
:1008B0000930B4003408BC002E1C642C3108B90780
:1008C0003208BA3D3308BB3D0130B036AF0CAE0C38
:1008D000890B652C0130BB36BA0CB90C890B6B2C1B
:1008E0000130BC02031D5C2C3908A0003A08A100AD
:1008F0003B08A2003808B4003408A3003D08B50046
:100900003508A40086314E2620002008AE002108BC
:10091000AF002208B000080020004108C4004208CF
:10092000C5004308C6000310450D460DC700470823
:10093000CC004C08031DA32C0030BE000030BF00CB
:100940000030C00008003E08C4003F08C500400851
:10095000C6000310450D460DC7004708CD004D08E1
:10096000031DB92C0030BE000030BF000030C000B5
:1009700008000030C9000030CA000030CB008930C8
:100980004D07C4004408CC024108C4004208C50019
:100990004308C6001030C636C50CC40C890BCB2CDE
:1009A0004408C7004708CD003E08C4003F08C50002
:1009B0004008C6001030C636C50CC40C890BDB2CB1
:1009C0004408C7004708CD068030C4004408CD0560
:1009D000C217FF30C105FF30C2050030C305BF1785
:1009E000FF30BE05FF30BF050030C0051830C40021
:1009F0004408C8000130C935CA0DCB0D890BFB2C4A
:100A000040084302031D0A2D3F084202031D0A2D20
:100A10003E084102031C132D3E08C1023F08C23BA1
:100A20004008C33B49140130C135C20DC30D890BC9
:100A3000142D0130C802031DFA2C4908A0004A08F1
:100A4000A1004B08A2004C08C4004408A3004D08B4
:100A5000C5004508A40086314E2620002008BE00AF
:100A60002108BF002208C00008002000E1018D31EC
:100A7000B52585318D316C25853121000E108E1103
:100A80000E128E128D018F0123000F08E0398F00A6
:100A90008B170B1706302000DE005E08E2008F3156
:100AA000552785318D31D925853101302000E80069
:100AB0000030E9008731A3278531220064036504F3
:100AC000031D692D66036704031D692D83311D23F2
:100AD0008531220062036304031D752D60036104E8
:100AE000031D752D8631B326853122005803590424
:100AF000031D5A2D39302000BE00C430BF003F30E6
:100B0000C000E030AE009730AF004030B0002200AF
:100B100069082000A900220068082000A8008D3183
:100B2000ED25853120002808B1002908B2002A08E7
:100B3000B3008331D823853120002E08C1002F084F
:100B4000C2003008C30084318C24853120003E0867
:100B5000E3003F08E4004008E5006308A0006408E3
:100B6000A1006508A2008531C72585312000210834
:100B7000CF002008CE0080317D20853120004F0835
:100B8000E0004E08DF002200D801D9015A2D2000D4
:100B90002008A4002108A5002208A6000310250DA6
:100BA000260DA7002708AD002D08031DE02D0030FD
:100BB000A3000030A2000030A1000030A000080017
:100BC0002008A4002108A5002208A6001730A63698
:100BD000A50CA40C890BE72D2408A7002708A80062
:100BE000A117FF30A005FF30A1050030A2052008A5
:100BF000A9002108AA002208AB00AC018E30AD028A
:100C0000AD1F1E2E2D08803A8F3E0318102E003087
:100C1000A3000030A2000030A1000030A0000800B6
:100C20000130AC36AB0CAA0CA90C890B112E01308B
:100C3000A4002408AD070319372E102E18302D02FA
:100C4000031C342E0030A3000030A2000030A100AD
:100C50000030A00008000130A935AA0DAB0DAC0D85
:100C6000890B2C2E0130AD022D08031D2B2E2808D8
:100C70000319452EA909AA09AB09AC09A90A031948
:100C8000AA0A0319AB0A0319AC0A2C08A3002B0803
:100C9000A2002A08A1002908A000080020002308BB
:100CA0000319572E220821042004031D682E00304A
:100CB000A0000030A1000030A20008000130A50013
:100CC0002508A3070130A236A10CA00C890B632EC6
:100CD000FE3022050319812E5E2E0130A500250865
:100CE000A3070130A007003003180130A10700302E
:100CF00003180130A2070130A236A10CA00C890B09
:100D00007C2EFF30220503198E2E6D2E0130A3029A
:100D10000130A035A10DA20D890B892EA11B942EA7
:100D2000023023020318862E23189C2EFF30A005C4
:100D30007F30A105FF30A2050310A30C2308A500F6
:100D4000A601A7011030A535A60DA70D890BA32E6E
:100D50002508A0042608A1042708A20424080319D2
:100D60000800A2170800220054035504031D0800C0
:100D700021006D086E04031DCE2E36302000A30026
:100D80009030A4008731E32786310D308D317B25EB
:100D900001302100ED070030EE3D08006D036E04C8
:100DA000031DE32E00302000A3009030A400873103
:100DB000E32786310D308D317B2501302100ED0791
:100DC0000030EE3D080002306D066E04031DFD2E5E
:100DD00044302000A3009030A4008731E3278631FF
:100DE0001A308D317B2586310D308D317B250130D8
:100DF0002100ED070030EE3D080003306D066E0463
:100E0000031D0800ED01EE012200E201E301E00113
:100E1000E101080001302200DC000030DD0001307B
:100E2000D2070030D33D0130D0070030D13D013032
:100E3000CE070030CF3D0130CC070030CD3D0A3029
:100E400052065304031D2A2F0130DA000030DB0064
:100E5000D201D301323050065104031D352F013029
:100E6000D8000030D900D001D10164304E064F04C3
:100E7000031D402F0130D6000030D700CE01CF0136
:100E800090304C06031D4D2F4D03031D4D2F013097
:100E9000D4000030D500CC01CD016A086B040319E1
:100EA00008006B088A006A080A00873108002300DE
:100EB0009D1C5C2F1D121D161908F00020006C08E7
:100EC000DB3E860001308700700881000130F000B1
:100ED0007008EC0723001908F0007008FB00583078
:100EE0007B06031D7B2FAA3022008D000130E40019
:100EF0000030E500982F59307B06031D852F013007
:100F00002200E6000030E700982F41307B06031DE9
:100F10008F2F01302200E2000030E300982F423092
:100F20007B06031D992F01302200E0000030E10014
:100F3000FB01083020006C020318EC010130F000C6
:100F40007008EA070800220054035504031D080036
:100F5000200066086704031DB12F5A30A3009030AB
:100F6000D32F66036704031DB92F2730A3009030E9
:100F7000D32F023066066704031DC22F5030A30032
:100F80009030D32F033066066704031DCB2F153036
:100F9000A3009030D32F043066066704031DDF2FB3
:100FA0003630A3009030A4008731E32787310D301D
:100FB0008D317B2501302000E6070030E73D22001F
:100FC000D401D501080025302000A5002508A8007F
:100FD00020002408A6002308A500A30A0319A40AD8
:100FE00025088400260885000008A7002708A90016
:100FF00029080319080029088D317B258731E82F3E
:101AD000080021009D14080021009D14080020002A
:101AE0001814080016302100970008003830210033
:101AF0009900980108002000A20022088F310A27CF
:101B00000800640080010131890B822D0034FE0041
:101B100012001E00FE0B882D0034013021009D00B4
:101B200060309E009B019C011117080020002108D5
:101B30002200EB00200020082200EA00080020001C
:101B400040083F043E04031908008030C006080026
:101B5000200011138E3135268D3171082200E900E5
:101B60007008E8008D31692508008E31E7268D3137
:101B70008D3176258D318D3172258D318E31022654
:101B80008D318D318D258D318E311A260800200042
:101B9000A300A201231CD02D2008A1002108A20728
:101BA0000310A00D0310A30C2308031DCA2D220847
:101BB000080028308E31A7268D3108308E31A726B7
:101BC0008D3101308E31A7268D3106308E31A7261A
:101BD0008D310C308E31A726080020002808A00087
:101BE0002908A100A2018E30AB002B08A300A4019C
:101BF00086314E2620002008A8002108A9002208CE
:101C0000AA000800200098019901EE309700960183
:101C10001708EE001608ED001110210011146830AD
:101C20002000A0000D30A1008D3196258E318D3120
:101C30006F250800210091121112083023009F0027
:101C400090309D0024309E00DF309B0001309C00CE
:101C5000FD01FC0108302000A0002008EF00EC018D
:101C6000EB01EA0121009116080021001B08F20097
:101C70000630F236890B392E7208F300F4011C0885
:101C8000F500F601F535F60DF535F60D7308750717
:101C9000F7007408763DF8007708F0007808F10046
:101CA0000800200011106E0897006D0896000130A2
:101CB0002200DE000030DF000130CA070030CB3DDB
:101CC00000304B020A3003194A02031C0800873116
:101CD0000A272200CA01CB0108002000A401A501A7
:101CE000201C762E2208A4072308A53D0130A2352A
:101CF000A30D890B772E0130A136A00C890B7C2E09
:101D000020082104031D702E2508A1002408A0002E
:101D10000800083020006F020318A42E7C08E33E60
:101D2000860001308700010823009A000130F0008E
:101D30007008FC0708307C020318FC010130F00039
:101D400070082000EF070800210011120800200091
:101D5000A30022008F1120002308A2000430A23625
:101D6000890BAF2E22088F312F278E3120002308B8
:101D70000F398F312F278E3106302000A200FB3023
:101D8000890BC02EA20BC02E08002000AD01A91F98
:101D9000D02EA809A909A80A0319A90AAD01AD0AFC
:101DA0002808A0002908A100A2018E30AB002B0852
:101DB000A3002D08AC002C08A40086314E2620007C
:101DC0002008A8002108A9002208AA000800220073
:101DD00090018F018C018D018E010F302100900048
:101DE000FF308C008D01BF308E00FF308F000F3030
:101DF00023008D00FF308F00073090003F308C00B3
:101E0000083024009000FF308D002100951322003F
:101E10009D0108002000A1006F0803190C2F21006C
:101E2000111A172F2000210823009A002C2F1112BD
:101E300020002108A0007D08E33E860001308700D5
:101E4000200881000130A0002008FD0708307D0235
:101E50000318FD010130EF022100111608002000D7
:101E6000A10022000D08F0392000210722008D007A
:101E700006302000A000FB30890B3C2FA00B3C2F2C
:101E800022000F1006302000A000FB30890B462FE7
:101E9000A00B462F22000F140C302000A000F730BA
:101EA000890B502FA00B502F080022008F108F118C
:101EB0000F1460302000A200BF30890B5D2FA20BF1
:101EC0005D2F03308F312F278F311E302000A2006D
:101ED000EB30890B692FA20B692F03308F312F272D
:101EE0008F3106302000A200FB30890B752FA20B2A
:101EF000752F03308F312F278F311E302000A20025
:101F0000EB30890B812FA20B812F02308F312F27CD
:101F10000800BA340B3481340A34493409348A3421
:101F2000083467340734AB340634F03405345E3497
:101F30000534CC3404345A340434E83403348C3457
:101F4000033431340334E9340234A13402346734C5
:101F500002342D340234F0340134CF340134A93446
:101F60000134833401346D3465347234673465343C
:101F700020342034203400346834613468346134CF
:101F800020342034203400342000B01FDB2F2E09F1
:101F9000B4002F09B5003009B600B40A0319B50A18
:101FA0000319B60A00303407AE000030353DAF00EB
:101FB0008030363DB000B31FF12F3109B400320933
:101FC000B5003309B600B40A0319B50A0319B60AF5
:101FD00000303407B1000030353DB2008030363D6E
:101FE000B3008030B0068030B30633083002031DE2
:101FF000080032082F02031D080031082E020800D5
:10200000413454342B3443344D34473453343D3409
:10201000223430343734353437343434393434348A
:1020200038343234333422340034413454342B3491
:1020300043344E344D3449343D3431342C3432340D
:102040002C3430342C3430342C343034003441349B
:1020500054342B344334503449344E343D342234D8
:102060003034303430343034223400344134543459
:102070002B3443345334433453343D3422344734C3
:1020800053344D3422340034693475347034693437
:10209000693420346D346534723467346534003407
:1020A000413454342B3443344D34473446343D3476
:0A20B000313400344134543400345C
:020000040001F9
:04000E00E2FFFFFE10
:00000001FF
