:0400000080312728FC
:100008007E14803120007F08F1000B1F1528210085
:10001800111E15282000111E15288031DA20803184
:1000280022280B1F22282100911E22282000911E21
:100038002228AA3022008D00813112217108200067
:10004800FF007E10090080312928FA01FB012030C9
:100058008400003085001330813148217E10200053
:10006800803136282000B70181313C2180318B173F
:100078000B172D30F5008130F6008031BD2080311E
:100088000C302000B600B130B5002B30890B4A285F
:10009800B50B4A28B60B4A282D30F5008130F600FA
:1000A8008031BD2080310C302000B600B130B50061
:1000B8002B30890B5D28B50B5D28B60B5D282D30DC
:1000C800F5008130F6008031BD2080310C302000F1
:1000D800B600B130B5002B30890B7028B50B7028ED
:1000E800B60B70287628F300200038080319782802
:1000F8002100111A8328730823009A0097281112E7
:100108007308F2007B08283E860087017208810088
:100118000130F2007208FB0708307B020318FB016C
:1001280001302000B80221001116080022009001B9
:100138008F018C018D018E010F3021009000FF305E
:100148008C008D01BF308E00FF308F003F302300C0
:100158008D00FF308F00073090003F308C00083052
:1001680024009000FF308D002100951322009D018E
:1001780008007730F70077082000B3007608F80009
:100188007508F700F50A0319F60A77088400780855
:1001980085000008F90079082000B4003408031924
:1001A8000800340881314E218031C22808302000EF
:1001B80038020318F4287A08283E860087010108C7
:1001C80023009A000130F0007008FA0708307A021C
:1001D8000318FA010130F00070082000B807080081
:1001E8002100111208002100911211120830230079
:1001F8009F0090309D0024309E00DF309B0001302E
:100208009C00FB01FA010830F20072082000B800D7
:10021800B201B101B00121009116080023009D1C14
:1002280017291D121D161908F00020003208203E5B
:1002380086008701700881000130F0007008B2075D
:10024800083032020318B2010130F0007008B0071C
:1002580008006D34653472346734653420346F3483
:100268002034703475346C3461340A340D340034FD
:1002780080319A2081318131532181318131582156
:1002880081318031F7200800640080010131890B39
:1002980049290034F4007408803177200800383088
:1002A80021009900980108001630210097000800E5
:020000040001F9
:04000E00E2FFFFFE10
:00000001FF
