:0400000080312428FF
:100008007E14803120007F08F1000B1F1528210085
:10001800111E15282000111E15288131AA218031B2
:100028001F280B1F1F282100911E1F282000911E2A
:100038001F288131102171082000FF007E1009005F
:1000480080312628FA01FB01203084000030850029
:100058001830823142227E1020008031D628563056
:10006800F5008230F60081318D2180310D308231EA
:10007800482280315E302000BB008230BA006930EF
:10008800890B4428BA0B4428BB0B44280930F500D7
:100098008230F60081318D2180310D308231482245
:1000A80080315E302000BB008230BA006930890B95
:1000B8005B28BA0B5B28BB0B5B283230F50082301B
:1000C800F60081318D2180310D3082314822803116
:1000D8005E302000BB008230BA006930890B72287C
:1000E800BA0B7228BB0B7228F730F5008130F60086
:1000F80081318D2180310D308231482280315E304E
:100108002000BB008230BA006930890B8928BA0BFD
:100118008928BB0B89280800F301F4017408803A88
:10012800F20082307202031D9B280030730203180C
:1001380008000130F3070030F43D22008E160E123D
:100148008E110E141E30F200EB30890BA928F20B29
:10015800A928000022008E160E168E110E101E30D1
:10016800F200EB30890BB628F20BB628000022000B
:100178008E120E168E150E101E30F200EB30890B03
:10018800C328F20BC328000022008E120E128E150F
:100198000E141E30F200EB30890BD028F20BD02859
:1001A800000008002000BE0121000E108E110E1262
:1001B8008E128231262280318B170B174730200090
:1001C800BD002230BC000D30890BE828BC0BE828A4
:1001D800BD0BE82800328031332080312000320303
:1001E8003304031DF22830033104031DF228803143
:1001F800902080312000B201B301B001B101053077
:100208002000BD00AD30BC00DD30890B0929BC0BD6
:100218000929BD0B0929F22823009D1C15291D1247
:100228001D161908F00020003708203E86008701B7
:10023800700881000130F0007008B7072300190822
:10024800F00070082000B40058303406031D35292A
:10025800AA3022008D0001302000B0000030B1002B
:100268003D2959303406031D3E290130B2000030C3
:10027800B300B401083037020318B7010130F000A9
:100288007008B5070800F30020003F080319482943
:100298002100111A5329730823009A0067291112A3
:1002A8007308F2007B08283E8600870172088100E7
:1002B8000130F2007208FB0708307B020318FB01CB
:1002C80001302000BF022100111608002200900111
:1002D8008F018C018D018E010F3021009000FF30BD
:1002E8008C008D01BF308E00FF308F003F3023001F
:1002F8008D00FF308F00073090003F308C000830B1
:1003080024009000FF308D002100951322009D01EC
:1003180008007730F70077082000B8007608F80062
:100328007508F700F50A0319F60A770884007808B3
:1003380085000008F90079082000B9003908031978
:10034800080039088231482281319229083020007A
:100358003F020318C4297A08283E8600870101084D
:1003680023009A000130F0007008FA0708307A027A
:100378000318FA010130F00070082000BF070800D8
:1003880021001112080021009112111208302300D7
:100398009F0090309D0024309E00DF309B0001308C
:1003A8009C00FB01FA010830F20072082000BF002F
:1003B800B701B601B5012100911608004134543443
:1003C8002B3443344D34473453343D3422343034A1
:1003D80037343534373434343934343438343234C7
:1003E800333422340034413454342B3443344E34BF
:1003F8004D3449343D3431342C3432342C34303497
:100408002C3430342C3430340034413454342B34CC
:100418004334503449344E343D3422343134323448
:100428003334343422340034413454342B34433498
:100438005334433453343D342234473453344D34E5
:100448002234003481316A21823182314D22823155
:100458008231522282318131C7210800413454341B
:100468002B3443344D34473446343D34313400342E
:10047800683465346C346C346F3400346400800143
:100488000131890B432A0034F40074088131472173
:100498000800383021009900980108001630210022
:0A04A800970008004134543400347A
:020000040001F9
:04000E00E2FFFFFE10
:00000001FF
