:1000000080313C28013400347E14803120007F0888
:10001000F9000B1F15282100111F15282000111FA2
:1000200015288731F327803137280B1F212821001D
:10003000111E21282000111E21288931A021803184
:1000400037280B1F2D282100911E2D282000911EDE
:100050002D288C313624803137280B1F372821007A
:10006000111C37282000111C3728893149217908B3
:100070002000FF007E10090080313E2822008031E0
:1000800002208031EE00803103208031EF005730B4
:1000900084008A308500A0308600013087002E3031
:1000A00088315D2080312E3084008B308500A03077
:1000B000860002308700403088315D208031FA01AF
:1000C000FB01FC01FD0164308400003085000A3032
:1000D0008831572080312100ED01EE01EF014A30D7
:1000E0008400013085002130883157208031CE30A6
:1000F0008400013085001D30883157208031203048
:100100008400023085004B30883157207E1020005B
:100110008331822BA030860001308700203084009C
:10012000013085002A302000D00016001A00D00BC4
:100130009528E830D8000330D9000030D2000030D4
:10014000D3000030D4000030D5000030D60000309D
:10015000D7002030860002308700A03084000030B5
:1001600085004B30D00016001A00D00BB3282100B8
:10017000EB01EC016C08803A2000D0008030500286
:10018000031DC528153021006B0203182E2A2100FB
:100190006B35203E860001308700403F2000D000B4
:1001A000413FD1004F085102031DD8284E0850028C
:1001B000031C1C2A21006B35023E203E86000130C4
:1001C0008700403F2000D000413FD10051084F023E
:1001D000031DEC2850084E02031C1C2A21006B351D
:1001E000203E8600013087006B35023E203E8400B1
:1001F00001308500003F2000D000013FD100D00930
:10020000D109D00A0319D10A403F5007A800413F45
:10021000513DA9008831B620803120002808D20045
:100220002908D3002A08D4000030BE00C830BF001F
:100230004130C0005208C1005308C2005408C30036
:100240008631E526803120003E08D5003F08D600E3
:100250004008D700DA01DB015B08803AD00080302B
:100260005002031D352919305A0203189A29033008
:100270002000D0005008A0005A088831902080311A
:10028000A03E8600870120005B08A9005A08A8004C
:100290008931BE21803120002808B1002908B20030
:1002A0002A08B3005508AE005608AF005708B00042
:1002B00086313126803120002E08BE002F08BF0075
:1002C0003008C00088317520803120003E08C10010
:1002D0003F08C2004008C30021006B35203E840067
:1002E00001308500003F2000A800013FA9008831AF
:1002F000B620803120002808C4002908C5002A083B
:10030000C60084318524803120004108C03F420866
:10031000C13F4308C23F0130DA070030DB3D5B08D4
:10032000803AD00080305002031D982919305A02BB
:10033000031C37292000DC01DD015D08803AD00074
:1003400080305002031DA62919305C0203181C2AB4
:1003500003302000D0005008A0005C0888319020B5
:100360008031A03E86008701403F2000AE00413F23
:10037000AF00423FB0004F08A9004E08A8008931E5
:10038000BE21803120002808B1002908B2002A08C7
:10039000B3008A31F2228031031C0C2A20004F085E
:1003A000A9004E08A8008931BE218031200028080C
:1003B000AE002908AF002A08B0000330D000500872
:1003C000A0005C08013E883190208031A03E86006C
:1003D0008701403F2000B100413FB200423FB300DF
:1003E0008A31F2228031031C0C2A21006C08200083
:1003F000A10021006B082000A0001930A2000030ED
:10040000A30089312D21803120005C082007D8000D
:100410005D08213DD9001C2A01302000DC07003096
:10042000DD3D5D08803AD00080305002031D1A2A5D
:1004300019305C02031CA82901302100EB070030B1
:10044000EC3D6C08803A2000D00080305002031D43
:100450002C2A153021006B02031CC72820005908E4
:10046000CF005808CE0008002000BA0020002F0856
:10047000B2002E08B100AE0A0319AF0A3108840099
:10048000320885000008B3003308B90039080319A1
:100490007F2B2530390603196B2A3A08023E860065
:1004A0008701160001040319632A3908B1003108D5
:1004B000A2003A08023E86008701413F8A00403F81
:1004C0000A008231362A20003A0886008701403F20
:1004D000B100413F8A2AB5019A2A3A08023E8600B5
:1004E0008701160001040319832A3908B100310875
:1004F000A2003A08023E86008701413F8A00403F41
:100500000A008231362A20003A0886008701403FDF
:10051000B100413FB2003108860032088700390837
:1005200081003A08860087010130810741310318B4
:10053000810A362A2F08B2002E08B100AE0A03192C
:10054000AF0A31088400320885000008B900003A7B
:1005500003197F2B643A0319B12A0D3A0319B12A02
:100560006D2A300886008701010884008501023069
:100570008107003FB700013FB800B81FC82A033009
:10058000B1003108B504B709B809B70A0319B80AA8
:10059000B901B90A053039060319ED2A3908B10045
:1005A000B201B135B20D6630310784009030323D72
:1005B0008500003FB300013FB40034083802031D3A
:1005C000E32A33083702031CED2A0130B100310859
:1005D000B90705303906031DCE2A3508033903193A
:1005E0001D2B3A08023E86008701160001040319FC
:1005F000072B2D30B1003108A2003A08023E8600D8
:100600008701413F8A00403F0A0083311D2B2000B3
:100610003A0886008701403FB100413FB2003108EF
:100620008600320887002D3081003A088600870155
:100630000130810741310318810A20003908B100D7
:100640003108B600FF302000B1003108B607360A85
:100650000319362A0A30A8000030A9003608B10074
:10066000B201B135B20D6630310784009030323DB1
:100670008500003FA000013FA1003808A300370813
:10068000A2008A318522823120002108AB00200897
:10069000AA008A312A22823120002808303EB30085
:1006A0003308B9003A08023E8600870116000104AB
:1006B0000319682B3908B1003108A2003A08023E3C
:1006C00086008701413F8A00403F0A008331222B88
:1006D00020003A0886008701403FB100413FB20048
:1006E0003108860032088700390881003A08860000
:1006F00087010130810741310318810A222BAE01A5
:10070000AF0108002000DF0188317E208331210005
:100710000E1188314020833121000E108E110E12EF
:100720008E1223000F08E0398F008B170B1706304D
:100730002000DE005E08E00021000F1501302200DD
:10074000EB000030EC008C318024833101308D319E
:10075000752583312000A00101308B316E23833158
:1007600022005A035B04031D6C2C88314620833120
:100770008831A22083318831CB20833120006A0365
:10078000031DC52B8D31CC25833188314020833129
:10079000FA302000BE00BE30BF003F30C0006230E3
:1007A000AE009C30AF004030B0002200670820004F
:1007B000A900220066082000A8008831B6208331F5
:1007C00020002808B1002908B2002A08B3008631A9
:1007D0003126833120002E08C1002F08C2003008C6
:1007E000C3008631E526833120003E08E1003F0842
:1007F000E2004008E3006108A0006208A10063086D
:10080000A2008E314826833120002108CF00200825
:10081000CE0080318A20833120004F082200CD0095
:1008200020004E082200CC004D08803A2000DE0057
:1008300081305E02031D1F2C2C3022004C02031855
:10084000242C22000E15262C22000E112000A001BF
:1008500001308B316E2383312000A001B0308B3109
:100860006E23833170302000A7009030A8008B31B8
:10087000AF23833122004D082000AA0022004C083B
:100880002000A9000330DE005E08AB008E31CF26C9
:1008900083312000A001C0308B316E23833184303E
:1008A0002000A7009030A8008B31AF2383312200B5
:1008B0004B082000AA0022004A082000A9000330AB
:1008C000DE005E08AB008E31CF2683312200DA01D4
:1008D000DB018731FD278331220062036304031D9E
:1008E000782C64036504031D782C85317B258331C6
:1008F000220060036104031DB02B5E035F04031D2F
:10090000B02B8F3160278331B02B20004108C70006
:100910004208C8004308C9000310480D490DCA0029
:100920004A08CD004408C7004508C8004608C90069
:100930000310480D490DCA004A08CC004D080319A0
:10094000AD2C4C084D020318B42C4D03FF3A4C0754
:10095000C70019304702031CB42C4408C1004508E5
:10096000C2004608C30008004C08031908004D08DF
:100970004C020318C32C4C03FF3A4D07C700193033
:100980004702031808000630C7004708CB00C31B06
:10099000CB17C61B4B17C217FF30C105FF30C2056E
:1009A0000030C305C517FF30C405FF30C505003052
:1009B000C6054C084D020318FF2C0130C435C50D87
:1009C000C60D890BDE2C0130CC024C084D060319F4
:1009D000FA2C0130CB024B0807390319FA2CDD2C15
:1009E0000130C336C20CC10C890BF12C0130C70099
:1009F0004708CD074D084C060319242DF02C4D084F
:100A00004C020318242D0130C135C20DC30D890BD2
:100A1000042D0130CD024C084D060319202D013064
:100A2000CB024B0807390319202D032D0130C636A0
:100A3000C50CC40C890B172D0130C7004708CC0723
:100A40004D084C06031D162DCB1F362DFF30C10659
:100A5000FF30C206FF30C3060130C1070030031863
:100A60000130C207003003180130C3074B1F482D67
:100A7000FF30C406FF30C506FF30C6060130C4078C
:100A8000003003180130C507003003180130C607D5
:100A9000CB014108C4074208C53D4308C63DC61FF7
:100AA000632DFF30C406FF30C506FF30C606013097
:100AB000C407003003180130C507003003180130A7
:100AC000C607CB01CB0A4408A0004508A100460890
:100AD000A2004D08C7004708A3004B08C8004808FB
:100AE000A40087318E2720002008C1002108C20001
:100AF0002208C3000800033022006F02E830031907
:100B00006E020318132E5C035D04031D132E6B038A
:100B10006C04031DCD2D0130EE070030EF3D7A0847
:100B2000031D9B2D01302000A0002008FA072200A1
:100B30000E148E11A62D7A03031DA82D013020005E
:100B4000A0002008FA0722000E108E150E12B52DF7
:100B500002307A06031DB72D01302000A0002008C6
:100B6000FA0722000E108E110E168E12CA2D0330B7
:100B70007A06031DC62D01302000A0002008FA07C8
:100B800022000E108E110E128E16CA2D04307A0617
:100B90000319FA01DC01DD0108006B086C04031D78
:100BA00008000130EE070030EF3D7A08031DE12D0B
:100BB00001302000A0002008FA0722008E160E1235
:100BC000EC2D7A03031DEE2D01302000A00020083B
:100BD000FA0722008E120E168E11FB2D02307A06B5
:100BE000031DFD2D01302000A0002008FA0722007F
:100BF0008E120E128E150E10102E03307A06031D63
:100C00000C2E01302000A0002008FA0722008E12CE
:100C10000E128E110E14102E04307A060319FA01EA
:100C2000DC01DD010800E8306E06033003196F06B1
:100C3000031D0800E401E501E201E301EE01EF011B
:100C40006B036C04031D272EEB01EC012F2E6B08A8
:100C50006C04031D2F2E0130EB000030EC00FA0174
:100C6000080020002E08B4002F08B5003008B60098
:100C70000310350D360DB7003708B8003808031DCE
:100C8000482E0030AE000030AF000030B000080049
:100C90003108B4003208B5003308B6000310350D32
:100CA000360DB7003708BD003D08031D5E2E00302D
:100CB000AE000030AF000030B00008003D087B3EC1
:100CC000B4003408B8072E08B4002F08B500300867
:100CD000B6001030B636B50CB40C890B6A2E340849
:100CE000B7003708BD003108B4003208B50033083A
:100CF000B6001030B636B50CB40C890B7A2E340819
:100D0000B7003708BD068030B4003408BD05AF1702
:100D1000B217FF30B105FF30B2050030B305003027
:100D2000B9000030BA000030BB000730B40034080E
:100D3000BC002E1CA12E3108B9073208BA3D330879
:100D4000BB3D0130B036AF0CAE0C890BA22E01308A
:100D5000B135B20DB30D890BA82E0130BC02031DB5
:100D6000992E0930B4003408BC002E1CBD2E310869
:100D7000B9073208BA3D3308BB3D0130B036AF0C7D
:100D8000AE0C890BBE2E0130BB36BA0CB90C890BE8
:100D9000C42E0130BC02031DB52E3908A0003A084C
:100DA000A1003B08A2003808B4003408A3003D08A5
:100DB000B5003508A40087318E2720002008AE003A
:100DC0002108AF002208B000080020004108C4003C
:100DD0004208C5004308C6000310450D460DC70074
:100DE0004708CC004C08031DFC2E0030BE0000302C
:100DF000BF000030C00008003E08C4003F08C50026
:100E00004008C6000310450D460DC7004708CD0039
:100E10004D08031D122F0030BE000030BF0000300F
:100E2000C00008000030C9000030CA000030CB000C
:100E300089304D07C4004408CC024108C400420870
:100E4000C5004308C6001030C636C50CC40C890B5B
:100E5000242F4408C7004708CD003E08C4003F08BF
:100E6000C5004008C6001030C636C50CC40C890B3E
:100E7000342F4408C7004708CD068030C40044081A
:100E8000CD05C217FF30C105FF30C2050030C305D4
:100E9000BF17FF30BE05FF30BF050030C00518305A
:100EA000C4004408C8000130C935CA0DCB0D890BF8
:100EB000542F40084302031D632F3F084202031DC5
:100EC000632F3E084102031C6C2F3E08C1023F08FD
:100ED000C23B4008C33B49140130C135C20DC30DAC
:100EE000890B6D2F0130C802031D532F4908A00044
:100EF0004A08A1004B08A2004C08C4004408A30003
:100F00004D08C5004508A40087318E272000200821
:100F1000BE002108BF002208C000080020002308EE
:100F20000319972F220821042004031DA82F003045
:100F3000A0000030A1000030A20008000130A50090
:100F40002508A3070130A236A10CA00C890BA32F02
:100F5000FE3022050319C12F9E2F0130A500250860
:100F6000A3070130A007003003180130A1070030AB
:100F700003180130A2070130A236A10CA00C890B86
:100F8000BC2FFF3022050319CE2FAD2F0130A30255
:100F90000130A035A10DA20D890BC92FA11BD42FA3
:100FA000023023020318C62F2318DC2FFF30A005C0
:100FB0007F30A105FF30A2050310A30C2308A50074
:100FC000A601A7011030A535A60DA70D890BE32FAB
:100FD0002508A0042608A1042708A2042408031950
:100FE0000800A2170800200011138931112171088F
:100FF0002200E7007008E600080021001114080034
:10107E00080021009D14080020001814080021000B
:10108E0011100800163021009700080020002208D9
:10109E008A31032208007830210099009801080057
:1010AE00640080010131890B58280034FE001200C3
:1010BE001E00FE0B5E280034013021009D006030C2
:1010CE009E009B019C01111708002000210823009F
:1010DE00EC00200020082300EB0008002000400850
:1010EE003F043E04031908008030C0060800893111
:1010FE00E021883188315220883188314920883169
:10110E008831F920883188316320883189318321F3
:10111E0008002000A300A201231C99282008A1008A
:10112E002108A2070310A00D0310A30C2308031D12
:10113E0093282208080021000F1120000F116C3097
:10114E002000A000B730890BAA28A00BAA282000E7
:10115E000F152E30890BB12821000F150800200025
:10116E002808A0002908A100A2018E30AB002B0890
:10117E00A300A40187318E2720002008A800210893
:10118E00A9002208AA0008002000EA013D30890BC0
:10119E00CE28000020000F1908007A30890BD528C0
:1011AE00003220000F1DDD28EA01EA0A3D30890BCE
:1011BE00DE28000008002000BF01C0014D30C10034
:1011CE000830C2003D30BD003D08BE003C08AF00F7
:1011DE003B08AE003E30BD003D08B0003F308231CE
:1011EE0034220800200098019901EE3097009601F4
:1011FE001708EF001608EE001110210011143F30F1
:10120E002000A0000830A10088316C208831883180
:10121E004320080021001B08F2000630F236890B2D
:10122E0015297208F300F4011C08F500F601F535D6
:10123E00F60DF535F60D73087507F7007408763D53
:10124E00F8007708F0007808F10008002000A401EB
:10125E00A501201C36292208A4072308A53D01302C
:10126E00A235A30D890B37290130A136A00C890BAD
:10127E003C2920082104031D30292508A10024083B
:10128E00A0000800200011106F0897006E0896004D
:10129E0001302300E9000030EA0001302200CE07C1
:1012AE000030CF3D00304F020A3003194E02031CAE
:1012BE0008008C31D1242200CE01CF01080020007D
:1012CE003C08C4003B08C300C501C6013F30C10045
:1012DE004108C2003E08AF003D08AE004230C100DA
:1012EE004108B0004330823134222000430886008A
:1012FE004408870081010800210091121112083064
:10130E0023009F0090309D0024309E00DF309B0014
:10131E0001309C00FD01FC0108302000A0002008D7
:10132E002200ED002000ED01EC01EB0121009116F1
:10133E000800083022006D020318BB297C08D63E37
:10134E00860001308700010823009A000130F0006A
:10135E007008FC0708307C020318FC010130F00015
:10136E0070082200ED07080021001112080020006D
:10137E00AD01A91FC929A809A909A80A0319A90A13
:10138E00AD01AD0A2808A0002908A100A2018E30E7
:10139E00AB002B08A3002D08AC002C08A40087314D
:1013AE008E2720002008A8002108A9002208AA00E4
:1013BE000800220090018F018C018D018E010F30EB
:1013CE0021009000FF308C008D01BF308E00F43074
:1013DE008F000F3023008D00F4308F000730900007
:1013EE003F308C00083024009000FF308D0021002B
:1013FE00951322009D0108002000A10022006D0817
:10140E000319052A2100111A112A20002108230090
:10141E009A00272A111220002108A0007D08D63E2E
:10142E00860001308700200881000130A0002008CE
:10143E00FD0708307D020318FD0101302200ED0288
:10144E002100111608002000280829040319522A29
:10145E00AD01AD0AA91B3D2A0130A835A90D890B96
:10146E00342A0130AC002C08AD07312A29082B0292
:10147E00031D432A28082A02031C492A2808AA0207
:10148E002908AB3B0130A936A80C890B4A2A01303A
:10149E00AD02031D3D2A2B08A9002A08A80008004A
:1014AE00BA340B3481340A3449340934583408348C
:1014BE0067340734AB340634F03405345E34053407
:1014CE00CC3404345A340434E83403348C340334C6
:1014DE0031340334E9340234A13402346734023433
:1014EE002D340234FE340134CF340134A7340134A8
:1014FE007F34013420340034203400342000A50120
:10150E00A601200821040319B52AA701A70AA11BC9
:10151E009A2A0130A035A10D890B912A0130A40021
:10152E002408A7078E2A0130A535A60D890B9B2A04
:10153E0021082302031DA52A20082202031CAC2A1F
:10154E002008A2022108A33B25140130A136A00CCD
:10155E00890BAD2A0130A702031D9A2A2608A10085
:10156E002508A00008002000A3010830230203185C
:10157E00F02A0F1DC02A2E30890BC32A20000F1906
:10158E00D82A0130A0002303FF3A073E890AD02A49
:10159E00A035890BCF2A2008FF3AA1002108A20509
:1015AE00E82A0130A0002303FF3A073E890AE02A09
:1015BE00A035890BDF2A2008A1002108A2040F19EB
:1015CE00E62A0130A0002008A30708302302031CDE
:1015DE00C02A220808002000B01F092B2E09B400D3
:1015EE002F09B5003009B600B40A0319B50A03195C
:1015FE00B60A00303407AE000030353DAF00803003
:10160E00363DB000B31F1F2B3109B4003209B500AF
:10161E003309B600B40A0319B50A0319B60A003025
:10162E003407B1000030353DB2008030363DB30096
:10163E008030B0068030B30633083002031D080038
:10164E0032082F02031D080031082E0208000C3448
:10165E00123412340C3400340034003400340034AC
:10166E0004340E341F340E34043400340034043485
:10167E000434043404341F340E34043400340A3475
:10168E00153411340A3404340034003400340A346E
:10169E001F341F340E34043400340034003400344C
:1016AE00003400340034003400340034003400348C
:1016BE00003400340034003400340034003400347C
:1016CE000034003400340034003400340034200080
:1016DE00A5002508A1000430A136890B732B210823
:1016EE00A2002208A30025080F39A1002108A4009A
:1016FE002008031D842B8F11852B8F15003220009F
:10170E000F140D08F0392304A1002108A6002608A5
:10171E008D000032003220000F1000320032200007
:10172E000F140D08F0392404A1002108A600260884
:10173E008D000032003220000F10003200320630D1
:10174E002000A100FB30890BAA2BA10BAA2B0800AD
:10175E0020002708840028088500120003190800BD
:10176E00200027088400280885001200253A031D52
:10177E00DF2B0130A7070030A83D2708840028087A
:10178E0085000008D03EA9002908AA00AA1BD82B64
:10179E002A08803A783E0318D82BA001A00A2A08FE
:1017AE00E72B2000A001A00A25308B316E238B3150
:1017BE002000A001A00A2708840028088500000840
:1017CE008B316E238B3101302000A7070030A83DEE
:1017DE00AF2B2000A601A31FFB2BA209A309A20A6F
:1017EE000319A30AA601A60AA11F022CA009A1098A
:1017FE00A00A0319A10A200821040319292CA50106
:10180E00A50AA11B142C0130A035A10D890B0B2CA0
:10181E000130A4002408A507082C21082302031D6B
:10182E001A2C20082202031C202C2008A2022108B8
:10183E00A33B0130A136A00C890B212C0130A5024F
:10184E00031D142C26080319312CA209A309A20A80
:10185E000319A30A2308A1002208A00008002300F0
:10186E009D1C3B2C1D121D161908F00020006D0842
:10187E00CE3E860001308700700881000130F000F6
:10188E007008ED0723001908F0007008FB005830AF
:10189E007B06031D582C01302200E2000030E300CD
:1018AE00752C59307B06031D622C01302200E4009A
:1018BE000030E500752C41307B06031D6C2C013089
:1018CE002200E0000030E100752C42307B06031D43
:1018DE00762C01302200DE000030DF00FB010830E4
:1018EE0020006D020318ED010130F0007008EB07C7
:1018FE00080020006508803AC30080304302031DB3
:10190E008A2C05306402031808002200580359047B
:10191E00031D802C200064086504031D9A2C923050
:10192E00BB009030BC2C64036504031DA22C49300F
:10193E00BB009030BC2C023064066504031DAB2C3A
:10194E007A30BB009030BC2C033064066504031D56
:10195E00B42C1530BB009030BC2C043064066504EA
:10196E00031DCD2C5830BB009030BC008831E220D6
:10197E008C310D302000C3004308A20088314D2069
:10198E008C3101302000E4070030E53D2200D80103
:10199E00D901802C01302200DC000030DD00013046
:1019AE00D6070030D73D0130D4070030D53D013089
:1019BE00D2070030D33D0130D0070030D13D0A3080
:1019CE0056065704031DF32C01302300E7000030A8
:1019DE00E8002200D601D701323054065504031D0B
:1019EE00002D01302300E5000030E6002200D40176
:1019FE00D501643052065304031D0B2D0130DA005D
:101A0E000030DB00D201D30190305006031D182D9B
:101A1E005103031D182D0130D8000030D900D0011C
:101A2E00D10123006B086C04031908006C088A00AE
:101A3E006B080A008D3108002000A601A11F2E2D73
:101A4E00A009A109A00A0319A10AA601A60AA31FAB
:101A5E00392DA209A309A20A0319A30A0130A40071
:101A6E002408A606A701A801200821040319682D41
:101A7E00A501A50AA11B4D2D0130A035A10D890B85
:101A8E00442D0130A4002408A507412D0130A735AF
:101A9E00A80D890B4E2D21082302031D582D200859
:101AAE002202031C5F2D2008A2022108A33B27144B
:101ABE000130A136A00C890B602D0130A502031D4B
:101ACE004D2D26080319702DA709A809A70A031979
:101ADE00A80A2808A1002708A00008002000A800D6
:101AEE00B4302000A7008730890B7B2DA70B7B2DF0
:101AFE00F0302000A700270821008D050F108F1150
:101B0E008F10F0302000A70027088D050F108F10C2
:101B1E008F11003220000F148D140032003220007D
:101B2E000F100032003206302000A700FB30890B68
:101B3E009E2DA70B9E2D2000A00128308B316E23E9
:101B4E008D312000A00128080C388B316E238D3189
:101B5E002000A00140308B316E238D312000A90171
:101B6E004030290203180800A001A00A2908A03E4F
:101B7E0086000230870001088B316E238D310130D3
:101B8E002000A7002708A907B72D8A31BA228D3168
:101B9E002000C7004708E7008A31BA228D312000A5
:101BAE00C7004708E6008A31BA228D312000C700EF
:101BBE004708E9008A31BA228D312000C700470854
:101BCE00E8008A31BA228D312000C7004708210073
:101BDE00EF0020006808C700C8016908C900CA01E3
:101BEE0067086607CB00CC01CC0D49084B07CD002A
:101BFE004A084C3DCE0047084D07CF0048084E3DE1
:101C0E00D000FF304F05D10000305005D20021002A
:101C1E006F082000D300D40152085406031D192E5C
:101C2E0051085306031D262E6908C70047082200D7
:101C3E00E90020006708C70047082200E8002000DE
:101C4E006708C700C8014708D5004808D6006708CE
:101C5E00C700C80147082200CA0020004808220019
:101C6E00CB00CC302000BB000130BC008C30BD005E
:101C7E009030BE005608C0005508BF00893166215D
:101C8E00080020002008A4002108A5002208A600B4
:101C9E000310250D260DA7002708AD002D08031DE6
:101CAE00612E0030A3000030A2000030A1000030F1
:101CBE00A00008002008A4002108A5002208A60004
:101CCE001730A636A50CA40C890B682E2408A70085
:101CDE002708A800A117FF30A005FF30A10500308E
:101CEE00A2052008A9002108AA002208AB00AC0119
:101CFE008E30AD02AD1F9F2E2D08803A8F3E0318F9
:101D0E00912E0030A3000030A2000030A100003060
:101D1E00A00008000130AC36AB0CAA0CA90C890B44
:101D2E00922E0130A4002408AD070319B82E912E6F
:101D3E0018302D02031CB52E0030A3000030A20077
:101D4E000030A1000030A00008000130A935AA0D16
:101D5E00AB0DAC0D890BAD2E0130AD022D08031D60
:101D6E00AC2E28080319C62EA909AA09AB09AC097D
:101D7E00A90A0319AA0A0319AB0A0319AC0A2C08FB
:101D8E00A3002B08A2002A08A1002908A000080021
:101D9E00DE308600013087002E3084000030850052
:101DAE0005302000AC0016001A00AC0BDA2E043001
:101DBE00B5000030B600B301B401AA1FF22EA00187
:101DCE00A00A2D308B316E238E312000A909AA096D
:101DDE00A90A0319AA0A29082A0403191F2F0A306F
:101DEE00A0000030A1002A08A3002908A2008B3110
:101DFE00F0238E3120002008AC0035082E3E8600E0
:101E0E0087012C0881000A30A0000030A1002A08AA
:101E1E00A3002908A2008D3123258E312000210830
:101E2E00AA002008A900FF30B507FF30B63DF22EFC
:101E3E002B0A0319272F2F2F0130B3070030B43D83
:101E4E0033082E3E860087010108031D3F2F232FE6
:101E5E002B08AC00AD01AC1BAD03AC09AD09AC0A4F
:101E6E000319AD0A2C08053EB30000302D3DB40019
:101E7E003408B6003308B5003608803AAC0080301E
:101E8E002C02031D4C2F05303502031808002000CC
:101E9E00A001A00A35082E3E860087010108303EBB
:101EAE008B316E238E3101302000B5070030B63DE8
:101EBE00432F21006E082000C7004708C9002100EB
:101ECE006D082000C7004708CA005830BB0090308C
:101EDE00BC008831E2208F310D302000C70047084A
:101EEE00A20088314D208F3105302000C800AD3062
:101EFE00C700DD30890B812FC70B812FC80B812FB7
:101F0E0000302000BB009030BC008831E2208F31C1
:101F1E000D302000C7004708A20088314D208F31B8
:101F2E000F302000C8000730C7009A30890B9D2F54
:101F3E00C70B9D2FC80B9D2F000049302000BB0002
:101F4E000030BC003830BD009030BE0022004D087D
:101F5E002000C00022004C082000BF0089316621FD
:101F6E008F3149302000BB000030BC008831E220A8
:101F7E008F314A302000BB000030BC002730BD003E
:101F8E009030BE006708C700C8014708BF00480868
:101F9E00C000893166218F314A302000BB000030ED
:101FAE00BC008831E2208F310A302000C8005A3040
:101FBE00C700BB30890BE12FC70BE12FC80BE12FF8
:101FCE0000321A302000C7004708A20088314D2089
:101FDE008F310D302000C7004708A20088314D20F8
:101FEE002300E301E4012200E001E101DE01DF0153
:101FFE000800413454342B3443344D344734533475
:10200E003D34223430343734353437343434393483
:10201E00343438343234333422340034413454348A
:10202E002B3443344E344D3449343D3431342C3416
:10203E0032342C3430342C3430342C3430340034AC
:10204E00203455346D34693464343D34253464346D
:10205E0020342034203420342034203420342034D2
:10206E0000342034543465346D3470346534723435
:10207E003D3425346434203420342034203420344C
:10208E0020340034413454342B34433450344934E6
:10209E004E343D34223431343234333434342234F9
:1020AE000034413454342B34433453344334533496
:1020BE003D342234473453344D3422340034013409
:1020CE0000340A34003464340034E83403341034F9
:1020DE002734543465346D347034653472343D3481
:1020EE00203420340034413454342B3443344D34B2
:1020FE00473446343D343134003455346D3469340C
:10210E0064343D3420342034003455346D343D3441
:0C211E002534643400344134543400345F
:020000040001F9
:04000E00E2F9FFFE16
:00000001FF
