:1000000080313C28013400347E14803120007F0888
:10001000F9000B1F15282100111F15282000111FA2
:1000200015288831E320803137280B1F2128210033
:10003000111E21282000111E21288A3125228031FD
:1000400037280B1F2D282100911E2D282000911EDE
:100050002D288C319824803137280B1F3728210018
:10006000111C37282000111C37288931B321790849
:100070002000FF007E10090080313E2822008031E0
:1000800002208031EE00803103208031EF008A3081
:1000900084008A308500A0308600013087002A3035
:1000A0008831C2208031FA01FB01FC01FD0163307F
:1000B0008400003085000B308831BC208031210065
:1000C000ED01EE01EF014A3084000130850021305E
:1000D0008831BC208031CA308400013085001D3059
:1000E0008831BC20803120308400023085004B30C4
:1000F0008831BC207E1020008431502CA030860036
:100100000130870020308400013085002A30200033
:10011000D00016001A00D00B8928E830D800033030
:10012000D9000030D2000030D3000030D4000030BD
:10013000D5000030D6000030D700203086000230D5
:100140008700A0308400003085004B30D0001600BE
:100150001A00D00BA7282100EB01EC016C08803AB3
:100160002000D00080305002031DB9281530210036
:100170006B020318222A21006B35203E86000130D5
:100180008700403F2000D000413FD1004F0851027E
:10019000031DCC284E085002031C102A21006B3589
:1001A000023E203E860001308700403F2000D00004
:1001B000413FD10051084F02031DE02850084E0274
:1001C000031C102A21006B35203E86000130870079
:1001D0006B35023E203E840001308500003F200048
:1001E000D000013FD100D009D109D00A0319D10AAA
:1001F000403F5007A800413F513DA90089313D21B2
:10020000803120002808D2002908D3002A08D40011
:100210000030BE00C830BF004130C0005208C100ED
:100220005308C2005408C30086319526803120004F
:100230003E08D5003F08D6004008D700DA01DB01B0
:100240005B08803AD00080305002031D2929193004
:100250005A0203188E2903302000D0005008A00055
:100260005A08893117218031A03E8600870120007D
:100270005B08A9005A08A8008A3145228031200075
:100280002808B1002908B2002A08B3005508AE00BA
:100290005608AF005708B0008531E12580312000B5
:1002A0002E08BE002F08BF003008C0008831DA20B9
:1002B000803120003E08C1003F08C2004008C30052
:1002C00021006B35203E840001308500003F200076
:1002D000A800013FA90089313D2180312000280874
:1002E000C4002908C5002A08C60083315A2380317A
:1002F00020004108C03F4208C13F4308C23F0130CF
:10030000DA070030DB3D5B08803AD00080305002D5
:10031000031D8C2919305A02031C2B292000DC01F3
:10032000DD015D08803AD00080305002031D9A291B
:1003300019305C020318102A03302000D000500846
:10034000A0005C08893117218031A03E860087011A
:10035000403F2000AE00413FAF00423FB0004F0899
:10036000A9004E08A8008A314522803120002808C3
:10037000B1002908B2002A08B3008B314E23803126
:10038000031C002A20004F08A9004E08A8008A314B
:100390004522803120002808AE002908AF002A0835
:1003A000B0000330D0005008A0005C08013E893145
:1003B00017218031A03E86008701403F2000B10018
:1003C000413FB200423FB3008B314E238031031CCA
:1003D000002A21006C082000A10021006B082000E9
:1003E000A0001930A2000030A3008931CF21803154
:1003F00020005C082007D8005D08213DD900102AA4
:1004000001302000DC070030DD3D5D08803AD0007F
:1004100080305002031D0E2A19305C02031C9C29F7
:1004200001302100EB070030EC3D6C08803A2000E1
:10043000D00080305002031D202A153021006B02AD
:10044000031CBB2820005908CF005808CE00080024
:100450002000BA0020002F08B2002E08B100AE0A1A
:100460000319AF0A31088400320885000008B30080
:100470003308B90039080319572B253039060319F9
:10048000552A3A0A860087011600010403196B2ACF
:100490003908B1003108A2003A0A86008701413FBD
:1004A0008A00403F0A0082312A2AB5017E2A3A0A90
:1004B000860087011600010403196B2A3908B10070
:1004C0003108A2003A0A86008701413F8A00403F76
:1004D0000A0082312A2A20003908B1003A08860031
:1004E0008701010886008701310881000130B100D1
:1004F0003A0886008701310881072A2A2F08B200AE
:100500002E08B100AE0A0319AF0A31088400320880
:1005100085000008B900003A0319572B643A031903
:10052000952A0D3A0319952A572A30088600870123
:1005300001088400850102308107003FB700013FB8
:10054000B800B81FAC2A0330B1003108B504B709B0
:10055000B809B70A0319B80AB901B90A053039064A
:100560000319D12A3908B100B201B135B20D663094
:10057000310784009030323D8500003FB300013FD9
:10058000B40034083802031DC72A33083702031C9D
:10059000D12A0130B1003108B90705303906031DF1
:1005A000B22A350803390319FB2A3A0A8600870163
:1005B000160001040319E92A2D30B1003108A20008
:1005C0003A0A86008701413F8A00403F0A00823193
:1005D000FB2A2D302000B1003A088600870101086F
:1005E00086008701310881000130B1003A08860099
:1005F00087013108810720003908B1003108B600B1
:10060000FF302000B1003108B607360A03192A2A44
:100610000A30A8000030A9003608B100B201B13597
:10062000B20D6630310784009030323D8500003FC6
:10063000A000013FA1003808A3003708A2008A31BA
:10064000E122823120002108AB002008AA008A3173
:10065000B422823120002808303EB3003308B900AC
:100660003A0A86008701160001040319442B390851
:10067000B1003108A2003A0A86008701413F8A0092
:10068000403F0A008331002B20003908B1003A08AE
:10069000860087010108860087013108810001304A
:1006A000B1003A088600870131088107002BAE01AE
:1006B000AF01080020004108C7004208C8004308F5
:1006C000C9000310480D490DCA004A08CD0044086E
:1006D000C7004508C8004608C9000310480D490D69
:1006E000CA004A08CC004D080319822B4C084D0261
:1006F0000318892B4D03FF3A4C07C70019304702F6
:10070000031C892B4408C1004508C2004608C300E9
:1007100008004C08031908004D084C020318982BD8
:100720004C03FF3A4D07C700193047020318080071
:100730000630C7004708CB00C31BCB17C61B4B179F
:10074000C217FF30C105FF30C2050030C305C51711
:10075000FF30C405FF30C5050030C6054C084D020A
:100760000318D42B0130C435C50DC60D890BB32B2E
:100770000130CC024C084D060319CF2B0130CB02BF
:100780004B0807390319CF2BB22B0130C336C20CEB
:10079000C10C890BC62B0130C7004708CD074D0897
:1007A0004C060319F92BC52B4D084C020318F92BE5
:1007B0000130C135C20DC30D890BD92B0130CD02DB
:1007C0004C084D060319F52B0130CB024B080739B5
:1007D0000319F52BD82B0130C636C50CC40C890B78
:1007E000EC2B0130C7004708CC074D084C06031D11
:1007F000EB2BCB1F0B2CFF30C106FF30C206FF30A6
:10080000C3060130C107003003180130C2070030B1
:1008100003180130C3074B1F1D2CFF30C406FF30E7
:10082000C506FF30C6060130C4070030031801308A
:10083000C507003003180130C607CB014108C407C3
:100840004208C53D4308C63DC61F382CFF30C406CC
:10085000FF30C506FF30C6060130C407003003185C
:100860000130C507003003180130C607CB01CB0AA1
:100870004408A0004508A1004608A2004D08C70092
:100880004708A3004B08C8004808A4008D318825FC
:1008900020002008C1002108C2002208C30008006F
:1008A0002000DF0189310521843121000E118831BA
:1008B000A22084318B170B1701302200EB0000308F
:1008C000EC008F316E27843101308C310C2484315F
:1008D000220054035504031D242D8831A82084319F
:1008E00089312921843189316821843120006C03C8
:1008F000031D7D2C8D31ED2584318831A22084317A
:10090000FA302000BE00BE30BF003F30C000623071
:10091000AE009C30AF004030B000220067082000DD
:10092000A900220066082000A80089313D218431F9
:1009300020002808B1002908B2002A08B300853138
:10094000E125843120002E08C1002F08C2003008A4
:10095000C30086319526843120003E08E0003F0820
:10096000E1004008E2006008A0006108A100620800
:10097000A2008E315626843120002108CF002008A5
:10098000CE0080317E20843120004F082200E50017
:1009900020004E082200E4006508803A2000DE00B6
:1009A00081305E02031DD72C2C3022006402031814
:1009B000DC2C22000E15DE2C22000E112000A001DE
:1009C00001308B318A2384312000A001B0308B317B
:1009D0008A2384317A302000A7009030A8008B3120
:1009E000CB238431220065082000AA00220064087D
:1009F0002000A9000330DE005E08AB008E31DD264A
:100A000084312000A001C0308B318A2384318430AE
:100A10002000A7009030A8008B31CB238431220026
:100A200063082000AA00220062082000A900033009
:100A3000DE005E08AB008E31DD2684312200D40159
:100A4000D5018831AB2084318831F9208431883157
:100A5000ED208431682C033022006F02E830031946
:100A60006E020318C32D56035704031DC32D6B03D9
:100A70006C04031D7D2D0130EE070030EF3D7A0838
:100A8000031D4B2D01302000A0002008FA07220092
:100A90000E148E11562D7A03031D582D013020009F
:100AA000A0002008FA0722000E108E150E12652DE8
:100AB00002307A06031D672D01302000A0002008B7
:100AC000FA0722000E108E110E168E127A2D0330A8
:100AD0007A06031D762D01302000A0002008FA07B9
:100AE00022000E108E110E128E167A2D04307A0608
:100AF0000319FA01D601D70108006B086C04031D25
:100B000008000130EE070030EF3D7A08031D912DFB
:100B100001302000A0002008FA0722008E160E12D5
:100B20009C2D7A03031D9E2D01302000A00020087B
:100B3000FA0722008E120E168E11AB2D02307A06A5
:100B4000031DAD2D01302000A0002008FA0722006F
:100B50008E120E128E150E10C02D03307A06031D54
:100B6000BC2D01302000A0002008FA0722008E12C0
:100B70000E128E110E14C02D04307A060319FA01DC
:100B8000D601D7010800E8306E06033003196F065E
:100B9000031D0800E001E101DE01DF01EE01EF01CC
:100BA0006B036C04031DD72DEB01EC01DF2D6B08EB
:100BB0006C04031DDF2D0130EB000030EC00FA0166
:100BC000080020002E08B4002F08B5003008B60039
:100BD0000310350D360DB7003708B8003808031D6F
:100BE000F82D0030AE000030AF000030B00008003B
:100BF0003108B4003208B5003308B6000310350DD3
:100C0000360DB7003708BD003D08031D0E2E00301D
:100C1000AE000030AF000030B00008003D087B3E61
:100C2000B4003408B8072E08B4002F08B500300807
:100C3000B6001030B636B50CB40C890B1A2E340839
:100C4000B7003708BD003108B4003208B5003308DA
:100C5000B6001030B636B50CB40C890B2A2E340809
:100C6000B7003708BD068030B4003408BD05AF17A3
:100C7000B217FF30B105FF30B2050030B3050030C8
:100C8000B9000030BA000030BB000730B4003408AF
:100C9000BC002E1C512E3108B9073208BA3D33086A
:100CA000BB3D0130B036AF0CAE0C890B522E01307B
:100CB000B135B20DB30D890B582E0130BC02031DA6
:100CC000492E0930B4003408BC002E1C6D2E3108AA
:100CD000B9073208BA3D3308BB3D0130B036AF0C1E
:100CE000AE0C890B6E2E0130BB36BA0CB90C890BD9
:100CF000742E0130BC02031D652E3908A0003A088D
:100D0000A1003B08A2003808B4003408A3003D0845
:100D1000B5003508A4008D31882520002008AE00DC
:100D20002108AF002208B000080020004108C400DC
:100D30004208C5004308C6000310450D460DC70014
:100D40004708CC004C08031DAC2E0030BE0000301C
:100D5000BF000030C00008003E08C4003F08C500C6
:100D60004008C6000310450D460DC7004708CD00DA
:100D70004D08031DC22E0030BE000030BF00003001
:100D8000C00008000030C9000030CA000030CB00AD
:100D900089304D07C4004408CC024108C400420811
:100DA000C5004308C6001030C636C50CC40C890BFC
:100DB000D42E4408C7004708CD003E08C4003F08B1
:100DC000C5004008C6001030C636C50CC40C890BDF
:100DD000E42E4408C7004708CD068030C40044080C
:100DE000CD05C217FF30C105FF30C2050030C30575
:100DF000BF17FF30BE05FF30BF050030C0051830FB
:100E0000C4004408C8000130C935CA0DCB0D890B98
:100E1000042F40084302031D132F3F084202031D05
:100E2000132F3E084102031C1C2F3E08C1023F083D
:100E3000C23B4008C33B49140130C135C20DC30D4C
:100E4000890B1D2F0130C802031D032F4908A00084
:100E50004A08A1004B08A2004C08C4004408A300A3
:100E60004D08C5004508A4008D31882520002008C4
:100E7000BE002108BF002208C000080021006E0843
:100E80002000C5004508C70021006D082000C500EE
:100E90004508C8005830BB009030BC008931522151
:100EA00087310D302000C5004508A2008831B720E9
:100EB000873105302000C600AD30C500DD30890B1C
:100EC0005F2FC50B5F2FC60B5F2F00302000BB00CC
:100ED0009030BC008931522187310D302000C5008F
:100EE0004508A2008831B72087310F302000C600A6
:100EF0000730C5009A30890B7B2FC50B7B2FC60BA3
:100F00007B2F000038302000BB009030BC00220056
:100F100065082000BE00220064082000BD004730A4
:100F20008A310822873147302000BB000030BC00E6
:100F300089315221873127302000BB009030BC001E
:100F40006D08C500C6014508BD004608BE00483012
:100F50008A310822873148302000BB000030BC00B5
:100F60008931522187310A302000C6005A30C5002D
:100F7000BB30890BB92FC50BB92FC60BB92F003267
:100F80001A302000C5004508A2008831B7208731FB
:100F90000D302000C5004508A2008831B72023008D
:100FA000DF01E0012200DC01DD01DA01DB010800E4
:100FB0002000A10022006D080319DA2F2100111A68
:100FC000E62F2000210823009A00FC2F1112200098
:100FD0002108A0006708D23E860001308700200863
:100FE00081000130A0002008E707083067020318DD
:100FF000E70101302200ED0221001116080008006F
:1011440021009D140800200018140800210011102B
:10115400080021001114080016302100970008002F
:101164007830210099009801080020002208873176
:10117400D8270800640080010131890BBD280034A0
:10118400FE0012001E00FE0BC328003401302100B3
:101194009D0060309E009B019C01111708002000F7
:1011A40021082300E800200020082300E7000800AD
:1011B400200040083F043E04031908008030C006A4
:1011C4000800200011138931972171082200E700DB
:1011D4007008E600080022005C035D04031D08009B
:1011E4005A035B04031D080087313E2708002200D0
:1011F4005E035F04031D080060036104031D08000F
:1012040085312B2508008A31672289318831B22043
:1012140089318831AE20893189317F218931883102
:10122400C82089318931EB2108002000A300A201E4
:10123400231C20292008A1002108A2070310A00DC7
:101244000310A30C2308031D1A29220808002100F7
:101254000F1120000F116C302000A000B730890B53
:101264003129A00B312920000F152E30890B382984
:1012740021000F15080020002808A0002908A1005B
:10128400A2018E30AB002B08A300A4018D31882568
:1012940020002008A8002108A9002208AA000800AC
:1012A4002000BF01B730C0000830C1003D30BD0090
:1012B4003D08BE003C08AF003B08AE003E30BD0018
:1012C4003D08B0003F308231282208002000EC01A4
:1012D4003D30890B6B29000020000F1908007A307B
:1012E400890B7229003220000F1D7A29EC01EC0AC7
:1012F4003D30890B7B2900000800200098019901EA
:10130400EE30970096011708EF001608EE00111052
:1013140021001114FF302000A0000730A100883103
:10132400D12089318831A520080021001B08F20052
:101334000630F236890B9B297208F300F4011C086D
:10134400F500F601F535F60DF535F60D730875075C
:10135400F7007408763DF8007708F0007808F1008B
:101364000800200011106F0897006E0896000130E5
:101374002200D8000030D9000130CA070030CB3D2C
:1013840000304B020A3003194A02031C08008D3155
:1013940034252200CA01CB0108002000A401A501C4
:1013A400201CD8292208A4072308A53D0130A23512
:1013B400A30D890BD9290130A136A00C890BDE2994
:1013C40020082104031DD2292508A1002408A00017
:1013D4000800210091121112083023009F00903060
:1013E4009D0024309E00DF309B0001309C002000D3
:1013F400E701E6010830A00020082200ED002000EB
:10140400E501E401E3012100911608002000C00079
:101414004008BF003F08C200C301C4013D30BF0003
:101424003F08C1003C08AF003B08AE004130BF009C
:101434003F08B00042308231282220004208860052
:10144400870181010800083022006D020318422A36
:1014540020006608D23E8600013087000108230080
:101464009A000130F00070082000E6070830660298
:101474000318E6010130F00070082200ED070800AF
:101484002100111208002000AD01A91F502AA8094B
:10149400A909A80A0319A90AAD01AD0A2808A000E0
:1014A4002908A100A2018E30AB002B08A3002D084F
:1014B400AC002C08A4008D31882520002008A80049
:1014C4002108A9002208AA000800220090018F0127
:1014D4008C018D018E010F3021009000FF308C00B3
:1014E4008D0186308E00F4308F000F3023008D0084
:1014F40010308F00073090003F308C0008302400FB
:101504009000FF308D002100951322009D010800FA
:10151400BA340B3481340A34493409345834083425
:1015240067340734AB340634F03405345E340534A0
:10153400CC3404345A340434E83403348C3403345F
:1015440031340334E9340234A134023467340234CC
:101554002D340234FE340134CF340134A734013441
:101564007F3401342000280829040319DC2AAD0142
:10157400AD0AA91BC72A0130A835A90D890BBE2ABB
:101584000130AC002C08AD07BB2A29082B02031D2F
:10159400CD2A28082A02031CD32A2808AA022908CB
:1015A400AB3B0130A936A80C890BD42A0130AD021B
:1015B400031DC72A2B08A9002A08A8000800200038
:1015C400A501A601200821040319112BA701A70ACC
:1015D400A11BF62A0130A035A10D890BED2A01309B
:1015E400A4002408A707EA2A0130A535A60D890B13
:1015F400F72A21082302031D012B20082202031CC1
:10160400082B2008A2022108A33B25140130A1368F
:10161400A00C890B092B0130A702031DF62A26080A
:10162400A1002508A00008002000A301083023021F
:1016340003184C2B0F1D1C2B2E30890B1F2B200045
:101644000F19342B0130A0002303FF3A073E890A07
:101654002C2BA035890B2B2B2008FF3AA100210845
:10166400A205442B0130A0002303FF3A073E890A58
:101674003C2BA035890B3B2B2008A1002108A20498
:101684000F19422B0130A0002008A30708302302C1
:10169400031C1C2B220808002000B01F652B2E09F8
:1016A400B4002F09B5003009B600B40A0319B50A0D
:1016B4000319B60A00303407AE000030353DAF00E0
:1016C4008030363DB000B31F7B2B3109B4003209A2
:1016D400B5003309B600B40A0319B50A0319B60AEA
:1016E40000303407B1000030353DB2008030363D63
:1016F400B3008030B0068030B30633083002031DD7
:10170400080032082F02031D080031082E020800C9
:101714002000A5002508A1000430A136890B8F2BD9
:101724002108A2002208A30025080F39A1002108DE
:10173400A4002008031DA02B8F11A12B8F150032AC
:1017440020000F140D08F0392304A1002108A6007D
:1017540026088D000032003220000F1000320032C3
:1017640020000F140D08F0392404A1002108A6005C
:1017740026088D000032003220000F1000320032A3
:1017840006302000A100FB30890BC62BA10BC62B11
:101794000800200027088400280885001200031987
:1017A4000800200027088400280885001200253A34
:1017B400031DFB2B0130A7070030A83D2708840038
:1017C400280885000008D03EA9002908AA00AA1B01
:1017D400F42B2A08803A783E0318F42BA001A00ABF
:1017E4002A08032C2000A001A00A25308B318A236B
:1017F4008B312000A001A00A270884002808850056
:1018040000088B318A238B3101302000A707003078
:10181400A83DCB2B2000A800B4302000A7008730BF
:10182400890B122CA70B122CF0302000A7002708DC
:1018340021008D050F108F118F10F0302000A700AC
:1018440027088D050F108F108F11003220000F1400
:101854008D140032003220000F10003200320630A6
:101864002000A700FB30890B352CA70B352C20005A
:10187400A00128308B318A238C312000A001280854
:101884000C388B318A238C312000A00140308B31FD
:101894008A238C312000A00101308B318A23080077
:1018A4002000A601A31F5D2CA209A309A20A031903
:1018B400A30AA601A60AA11F642CA009A109A00AD3
:1018C4000319A10A2008210403198B2CA501A50AD8
:1018D400A11B762C0130A035A10D890B6D2C013094
:1018E400A4002408A5076A2C21082302031D7C2CCC
:1018F40020082202031C822C2008A2022108A33BF8
:101904000130A136A00C890B832C0130A502031DE4
:10191400762C26080319932CA209A309A20A0319F9
:10192400A30A2308A1002208A000080023009D1C8C
:101934009D2C1D121D161908F00020006508CA3ED2
:10194400860001308700700881000130F0007008C3
:10195400E50723001908F0007008FB0058307B06E7
:10196400031DBA2C01302200DE000030DF00D72C2A
:1019740059307B06031DC42C01302200E0000030E6
:10198400E100D72C41307B06031DCE2C0130220010
:10199400DC000030DD00D72C42307B06031DD82C40
:1019A40001302200DA000030DB00FB0108302000A7
:1019B40065020318E5010130F0007008E307080030
:1019C4002000A601A11FED2CA009A109A00A03195A
:1019D400A10AA601A60AA31FF82CA209A309A20A18
:1019E4000319A30A0130A4002408A606A701A8012C
:1019F400200821040319272DA501A50AA11B0C2DDC
:101A04000130A035A10D890B032D0130A400240859
:101A1400A507002D0130A735A80D890B0D2D210830
:101A24002302031D172D20082202031C1E2D20084B
:101A3400A2022108A33B27140130A136A00C890B74
:101A44001F2D0130A502031D0C2D260803192F2D6F
:101A5400A709A809A70A0319A80A2808A1002708A2
:101A6400A000080001302200D6000030D700013069
:101A7400D2070030D33D0130D0070030D13D0130D2
:101A8400CE070030CF3D0130CC070030CD3D0A30C9
:101A940052065304031D562D01302300E500003087
:101AA400E6002200D201D301323050065104031D56
:101AB400632D01302300E3000030E4002200D00154
:101AC400D10164304E064F04031D6E2D0130D40045
:101AD4000030D500CE01CF0190304C06031D7D2D82
:101AE4004D03031D7D2D01302300E1000030E20091
:101AF4002200CC01CD012300670868040319080003
:101B040068088A0067080A008D310800200023084D
:101B14000319912D220821042004031DA22D003055
:101B2400A0000030A1000030A20008000130A50090
:101B34002508A3070130A236A10CA00C890B9D2D0A
:101B4400FE3022050319BB2D982D0130A500250870
:101B5400A3070130A007003003180130A1070030AB
:101B640003180130A2070130A236A10CA00C890B86
:101B7400B62DFF3022050319C82DA72D0130A3026D
:101B84000130A035A10DA20D890BC32DA11BCE2DB3
:101B9400023023020318C02D2318D62DFF30A005D0
:101BA4007F30A105FF30A2050310A30C2308A50074
:101BB400A601A7011030A535A60DA70D890BDD2DB3
:101BC4002508A0042608A1042708A2042408031950
:101BD4000800A21708008B3116238D312000A400C1
:101BE4002408ED008B3116238D312000A400240835
:101BF400E9008B3116238D312000A4002408EB006A
:101C04008B3116238D312000A4002408EA008B3187
:101C140016238D312000A4002408E8006A08A400DB
:101C2400A5016B08A600A7016D086907A800A90112
:101C3400A90D26082807AA002708293DAB00240877
:101C44002A07AC0025082B3DAD00FF302C05AE0063
:101C540000302D05AF006808B000B1012F0831062F
:101C6400031D362E2E083006031D432E6B08A400D8
:101C740024082200E90020006D08A40024082200A2
:101C8400E80020006D08A400A5012408B20025087E
:101C9400B3006D08A400A50124082200E20020007E
:101CA40025082200E300080020002008A4002108E1
:101CB400A5002208A6000310250D260DA70027085D
:101CC400AD002D08031D6F2E0030A3000030A200CC
:101CD4000030A1000030A00008002008A400210862
:101CE400A5002208A6001730A636A50CA40C890B63
:101CF400762E2408A7002708A800A117FF30A00506
:101D0400FF30A1050030A2052008A9002108AA007F
:101D14002208AB00AC018E30AD02AD1FAD2E2D08F4
:101D2400803A8F3E03189F2E0030A3000030A2009B
:101D34000030A1000030A00008000130AC36AB0C2C
:101D4400AA0CA90C890BA02E0130A4002408AD070D
:101D54000319C62E9F2E18302D02031CC32E0030EB
:101D6400A3000030A2000030A1000030A000080051
:101D74000130A935AA0DAB0DAC0D890BBB2E01307A
:101D8400AD022D08031DBA2E28080319D42EA90963
:101D9400AA09AB09AC09A90A0319AA0A0319AB0ACF
:101DA4000319AC0A2C08A3002B08A2002A08A100DE
:101DB4002908A0000800DA308600013087002E30A0
:101DC40084000030850005302000AC0016001A00A5
:101DD400AC0BE82E0430B5000030B600B301B401FA
:101DE400AA1F002FA001A00A2D308B318A238E3127
:101DF4002000A909AA09A90A0319AA0A29082A0478
:101E040003192D2F0A30A0000030A1002A08A300D6
:101E14002908A2008C3152248E3120002008AC0005
:101E240035082E3E860087012C0881000A30A00068
:101E34000030A1002A08A3002908A2008C31E22462
:101E44008E3120002108AA002008A900FF30B50720
:101E5400FF30B63D002F2B0A0319352F3D2F0130DB
:101E6400B3070030B43D33082E3E860087010108D5
:101E7400031D4D2F312F2B08AC00AD01AC1BAD035E
:101E8400AC09AD09AC0A0319AD0A2C08053EB30030
:101E940000302D3DB4003408B6003308B5003608D0
:101EA400803AAC0080302C02031D5A2F05303502D5
:101EB400031808002000A001A00A35082E3E860061
:101EC40087010108303E8B318A238E310130200096
:101ED400B5070030B63D512F8C302000BB00903048
:101EE400BC00893152218F310D302000C2004208DC
:101EF400A2008831B7208F3147302000C300223040
:101F0400C2000D30890B842FC20B842FC30B842F86
:101F1400003249302000BB009030BC00893152218E
:101F24008F310D302000C2004208A2008831B72052
:101F34008F3175302000C300E230C200C430890BF9
:101F4400A12FC20BA12FC30BA12F000070302000C2
:101F5400BB009030BC00893152218F310D302000FC
:101F6400C2004208A2008831B7208F3175302000AA
:101F7400C300E230C200C430890BBE2FC20BBE2F97
:101F8400C30BBE2F000015302000BB009030BC00F6
:101F9400893152218F310D302000C2004208A20045
:101FA4008831B7208F3175302000C300E230C20081
:101FB400C430890BDB2FC20BDB2FC30BDB2F0000DC
:101FC40058302000BB009030BC00893152218F3141
:101FD4000D302000C2004208A2008831B7208F31A2
:101FE40075302000C300E230C200C430890BF82FE2
:101FF400C20BF82FC30BF82F0000080041345434EF
:102004002B3443344D34473453343D342234303448
:10201400373435343734343439343434383432346E
:10202400333422340034413454342B3443344E3466
:102034004D3449343D3431342C3432342C3430343E
:102044002C3430342C3430340034203455346D3452
:10205400693464343D3425346434203420342034E9
:1020640020342034203420342034003420345434B8
:1020740065346D347034653472343D3425346434DD
:1020840020342034203420342034203400344134AB
:1020940054342B344334503449344E343D34223494
:1020A400313432343334343422340034413454340B
:1020B4002B3443345334433453343D34223447347F
:1020C40053344D3422340034013400340A3400349F
:1020D40064340034E8340334103427344134543441
:1020E4002B3443344D34473446343D343134003496
:1020F400543465346D347034653472343D34203472
:102104002034003455346D34693464343D3420341F
:0A2114002034003441345434003408
:020000040001F9
:04000E00E2F9FFFE16
:00000001FF
