:0400000080312428FF
:100008007E14803120007F08F1000B1F1528210085
:10001800111E15282000111E1528813181218031DB
:100028001F280B1F1F282100911E1F282000911E2A
:100038001F288031F02071082000FF007E10090081
:1000480080312628FA01FB01203084000030850029
:100058001630823107227E10200080319428F73034
:10006800F5008130F6008131642180310D30823114
:100078000D2280315E302000B9008230B80069302E
:10008800890B4428B80B4428B90B4428DD30F50007
:100098008130F6008131642180310D3082310D22AA
:1000A80080315E302000B9008230B8006930890B99
:1000B8005B28B80B5B28B90B5B28B930F500813099
:1000C800F6008131642180310D3082310D2280317A
:1000D8005E302000B9008230B8006930890B722880
:1000E800B80B7228B90B72280130F5008230F6007F
:1000F8008131642180311A3082310D2280310D30F6
:1001080082310D2280310C302000B900B130B800A6
:100118002B30890B8D28B80B8D28B90B8D2808003A
:100128002000BC0122008D018131EB2180318B1729
:100138000B1747302000BB002230BA000D30890B66
:10014800A328BA0BA328BB0BA32800321B30F50049
:100158008230F6008131642180310D3082310D22E8
:1001680080315E302000BB008230BA006930890BD4
:10017800BB28BA0BBB28BB0BBB28CE30F50081309F
:10018800F6008131642180310D3082310D228031B9
:100198005E302000BB008230BA006930890BD2285B
:1001A800BA0BD228BB0BD228200030033104031D20
:1001B800D8288031332080312000B001B1010530CA
:1001C8002000BB00AD30BA00DD30890BE928BA0B3E
:1001D800E928BB0BE928D82823009D1CF5281D1207
:1001E8001D161908F00020003508203E86008701FA
:1001F800700881000130F0007008B5072300190865
:10020800F00070082000B20047303206031D15299F
:10021800AA3022008D0001302000B0000030B1006B
:10022800B201083035020318B5010130F00070083A
:10023800B3070800F30020003D0803191F29210017
:10024800111A2A29730823009A003E2911127308EB
:10025800F2007B08283E8600870172088100013081
:10026800F2007208FB0708307B020318FB0101301B
:100278002000BD02210011160800220090018F0104
:100288008C018D018E010F3021009000FF308C0011
:100298008D01BF308E00FF308F003F3023008D006E
:1002A800FF308F00073090003F308C00083024006A
:1002B8009000FF308D002100951322009D01080059
:1002C8007730F70077082000B6007608F800750840
:1002D800F700F50A0319F60A7708840078088500FC
:1002E8000008F90079082000B7003708031908004A
:1002F800370882310D2281316929083020003D02FA
:1003080003189B297A08283E8600870101082300E4
:100318009A000130F0007008FA0708307A020318D2
:10032800FA010130F00070082000BD070800210024
:1003380011120800210091121112083023009F00A9
:1003480090309D0024309E00DF309B0001309C00DF
:10035800FB01FA010830F20072082000BD00B50167
:10036800B401B301210091160800413454342B34F0
:1003780043344D34473453343D34223430343734E5
:10038800353437343434393434343834323433341B
:1003980022340034413454342B34433450344934F7
:1003A8004E343D342234313432343334343422340C
:1003B8000034413454342B344334533443345334A9
:1003C8003D342234473453344D342234003481319F
:1003D80041218131823112228131823117228131CA
:1003E80081319E210800413454342B3443344D3438
:1003F800473446343D3431340034683465346C3421
:100408006C346F340034640080010131890B082A90
:100418000034F400740881311E21080038302100AE
:10042800990098010800163021009700080041340F
:040438005434003404
:020000040001F9
:04000E00E2FFFFFE10
:00000001FF
