:0400000080313C28E7
:100008007E14803120007F08F9000B1F152821007D
:10001800111F15282000111F1528843175248031DF
:1000280037280B1F21282100111E21282000111E0E
:10003800212883312E23803137280B1F2D282100BA
:10004800911E2D282000911E2D2881318A21803172
:1000580037280B1F37282100111C37282000111CB6
:1000680037288331822379082000FF007E10090099
:1000780080313E28913084008430850065308600C8
:1000880000308700063084319D2480319B30840005
:1000980082308500A0308600003087002A30843105
:1000A8009D248031FA01FB01FC01FD012030840010
:1000B8000030850037308431A3248031CA30840071
:1000C8000030850017308431A3248031203084002B
:1000D800013085004B308431A3247E10200080310C
:1000E80075282000E3018331EE23803121000E11B1
:1000F8008431BE24803121000E108E110E128E1212
:1001080023000F08E0398F008B170B1706302000EB
:10011800E2006208E40021000F1501302000EB0026
:100128000030EC0001308131D321803120003603CA
:100138003704031D9A288431A92480314030823144
:10014800C5228031013A031DB7282000D7010130AC
:1001580082315A22803100302000DE008430DF00F6
:1001680082311922803120308231C5228031013A12
:10017800031DCC282000D701013082315A2280315A
:10018800CA302000DE008330DF008231192280313E
:1001980080308231C5228031013A031DE1282000D8
:1001A800D701013082315A22803122302000DE000E
:1001B8008430DF008231192280312000B601B70176
:1001C8009A2820000F1BF7287D080339033A0319E2
:1001D80000297D080339D700D70A7D085706FC395E
:1001E8005706FD0000290F1F00297D080339033A2F
:1001F80003190029FC30FD058F1B16297D0C890C7D
:100208000339033A031920297D0CD700570C033909
:10021800D700D70AD70DD70D7D085706F3395706EB
:10022800FD0020298F1F20297D0C890C0339033AF2
:1002380003192029F330FD058F1A32297D0E033961
:10024800033A031908007D0E0339D700D70AD70EE1
:100258007D085706CF395706FD0008008F1E080095
:100268007D0E0339033A03190800CF30FD05080055
:1002780001302000B8000030B9000130AE0700306E
:10028800AF3D0130AC070030AD3D0130AA0700306A
:10029800AB3D0130A8070030A93D0A302E062F04D7
:1002A800031D5C290130B6000030B700AE01AF0174
:1002B80032302C062D04031D67290130B4000030AC
:1002C800B500AC01AD0164302A062B04031D722968
:1002D8000130B2000030B300AA01AB01903028060B
:1002E800031D7F292903031D7F290130B000003039
:1002F800B100A801A90121006108620403190800DE
:1003080062088A0061080A008131080023009D1CE8
:100318008F291D121D161908F00020005208CA3E28
:1003280086008701700881000130F0007008D2074C
:1003380023001908F0007008FC0058307C06031DE3
:10034800AB2901302000C0000030C100C829593055
:100358007C06031DB52901302000C2000030C3000F
:10036800C82941307C06031DBF2901302000BE008A
:100378000030BF00C82942307C06031DC92901305E
:100388002000BC000030BD00FC01083020005202F3
:100398000318D2010130F0007008D00708002000CF
:1003A800DF00B4302000DE008730890BD929DE0B4E
:1003B800D929F0302000DE005E0821008D050F10DD
:1003C8008F118F10F0302000DE005E088D050F10B1
:1003D8008F108F11003220000F148D14003200325C
:1003E80020000F100032003206302000DE00FB3003
:1003F800890BFC29DE0BFC292000D701283082312B
:100408005A2281312000D7015F080C3882315A22E4
:1004180081312000D701403082315A2281312000B9
:10042800D701013082315A22080020005E0884007A
:100438005F08850012000319080020005E08840088
:100448005F0885001200253A031D492A0130DE079E
:100458000030DF3D5E0884005F0885000008D03E5C
:10046800E0006008E100E11B422A6108803A783E1A
:100478000318422AD701D70A6108512A2000D70158
:10048800D70A253082315A2282312000D701D70A73
:100498005E0884005F088500000882315A22823194
:1004A80001302000DE070030DF3D192A2000DC0083
:1004B8005C08D8000430D836890B5F2A5808D90060
:1004C8005908DA005C080F39D8005808DB005708CB
:1004D800031D702A8F11712A8F15003220000F1406
:1004E8000D08F0395A04D8005808DD005D088D0061
:1004F8000032003220000F100032003220000F14AA
:100508000D08F0395B04D8005808DD005D088D003F
:100518000032003220000F10003200320630200076
:10052800D800FB30890B962AD80B962A0800BA34D3
:100538000B3481340A344934093458340834673464
:100548000734AB340634F03405345E340534CC3427
:1005580004345A340434E83403348C3403343134E6
:100568000334E9340234A1340234673402342D34BC
:100578000234FE340134CF340134A73401347F34DB
:1005880001342000D700D801DD2A00305618013088
:10059800D8005610E82A0030D6180130D800D610F6
:1005A800E82A003056190130D8005611E82AD80137
:1005B800E82A5708203A0319D52A603A0319C92AA4
:1005C800C03A0319CF2ADB2A5808080022009001F4
:1005D8008F018C018D018E010F3021009000FF30BA
:1005E8008C008D01BF308E00F4308F000F30230057
:1005F8008D0014308F00073090003F308C00083099
:1006080024009000FF308D002100951322009D01E9
:10061800080020000F1F182B7D080339033A031D1B
:10062800182B5614FC30FD058F1F232B7D0C890CCD
:100638000339033A031D232BD614F330FD058F1E0F
:1006480008007D0E0339033A031D08005615CF3004
:10065800FD050800083020006F020318482B5308D6
:10066800D23E86008701010823009A000130F0007D
:1006780070082000D307083053020318D301013053
:10068800F0007008EF07080021001112080021008F
:100698001B08F2000630F236890B4F2B7208F30064
:1006A800F4011C08F500F601F535F60DF535F60DE3
:1006B80073087507F7007408763DF8007708F000AE
:1006C8007808F10008002100911211120830230067
:1006D8009F0090309D0024309E00DF309B00013049
:1006E8009C002000D401D3010830D7005708EF0040
:1006F800D201D101D001210091160800200011106B
:100708006E0897006D0896000130BA000030BB00F3
:100718000130A6070030A73D003027020A30031930
:100728002602031C080081313C212000A601A701F4
:100738000800200098019901EE30970096011708EB
:10074800EE001608ED00111021001114C130200030
:10075800D7000430D80084317F2483318431BB240E
:100768000800413454342B3443344D344734533423
:100778003D3422343034373435343434353431343C
:100788003434393431343734223400342034623448
:1007980074346E3420346D3469346E347534733483
:1007A80020342034203420342034203420340034C1
:1007B800413454342B3443344E344D3449343D346D
:1007C80031342C3432342C3430342C3430342C340E
:1007D800303400348231EA2283318431AF248331CA
:1007E8008431B424833183319D2383318431882437
:1007F80083318331672308002034623474346E34C3
:1008080020346F346B3420342034203420342034A6
:1008180020342034203420340034203455346D34CE
:10082800693464343D34253464342034203420342D
:1008380020342034203420342034003420346234EE
:1008480074346E34203450344C345534533420349A
:100858002034203420342034203420340034203410
:10086800543465346D347034653472343D34253411
:1008780064342034203420342034203420340034AC
:10088800413454342B344334503449344E343D3499
:100898002234313432343334343422340034413461
:1008A80054342B3443345334433453343D34223496
:1008B800473453344D3422340034013400340A347C
:1008C800003464340034E8340334103427344134B9
:1008D80054342B3443344D34473446343D34313466
:1008E80000342000111383314B2371082000C50008
:1008F8007008C4000800200058082100E200200009
:1009080057082100E1000800013021009D006030F7
:100918009E009B019C01111708000134003420340B
:1009280000342034003455346D343D342534643477
:100938000034FE0012001E00FE0B9E2C00346400E2
:1009480080010131890BA42C00348031E5208431E9
:1009580083310D23080078302100990098010800A0
:100968001630210097000800413454340034200028
:0C0978001814080021009D14080008005D
:020000040001F9
:04000E00E2F9FFFE16
:00000001FF
