:0400000080312E28F5
:100008007E14803120007F08F600D130F100813065
:10001800F20081317D2180312000911E2A282300A1
:100028001908F4007408F90078088C3EF400F5010A
:100038002130F53D7408860075088700790881002D
:100048000130F4007408F807200091127608FF00C8
:100058007E100900803130282830840081308500E6
:1000680020308600003087000030FF003A308131B0
:10007800A5218031E030840080308500A0308600E2
:10008800003087000030FF0048308131A5218031E1
:100098008C308400213085006430FE000030FF0081
:1000A8008131B1218031F701F801F9015A3084001A
:1000B800003085000A30FE000030FF008131B12198
:1000C8007E102000803168288131952180310B17FE
:1000D8008B1721008D0123008D0122008D0118301E
:1000E8002000E9006130E8005830890B7928E80BD6
:1000F8007928E90B7928000057302000E500003006
:10010800E60081316221803147302000E900223049
:10011800E8000D30890B8E28E80B8E28E90B8E2815
:10012800003235302000E5000030E60081316221E0
:10013800803147302000E9002230E8000D30890B7B
:10014800A328E80BA328E90BA32800324430200099
:10015800E5000030E6008131622180312F30200037
:10016800E900C130E800B330890BB828E80BB8289B
:10017800E90BB828003220003308E800E9016808D4
:10018800E5006908E60081316221803147302000AE
:10019800E9002230E8000D30890BD028E80BD02880
:1001A800E90BD0280032D6302000E5000030E60008
:1001B800813162218031DF28413454342B34433477
:1001C8004D34473453343D342234303437343534A5
:1001D80037343434393434343834323433342234E0
:1001E8000034413454342B34433453344D34503474
:1001F8003D34313437342C343134363437342C34BC
:1002080030342C3430340034413454342B344334B7
:100218005334433453343D342234473453344D3407
:1002280022340034413454342B3443344E344D3466
:1002380049343D3432342C3432342C3430342C3478
:1002480030342C3430340034413454342B34433477
:100258004D3447344C343D34223441344C344C34DE
:100268002234003441345434453430340034BD34FD
:100278001A34413454342B344334503449344E34D2
:100288003D3422343134323433343434223400347B
:10029800413454342B3443344D34473446343D349C
:1002A80031340034643472346134673475346C34F6
:1002B8006534203400344134543400342000650857
:1002C8008400660885001200031979292000650852
:1002D80084006608850000088131C721813101301A
:1002E8002000E5070030E63D62290D308131C72145
:1002F800080071088400720885001200031991290A
:10030800710884007208850000088131D821813184
:100318000130F1070030F23D7D290D308131D821BF
:10032800080023009E161E151D168D1221008E171B
:100338000E17773023009B002100911623009D178C
:100348000800FE0012001E000130FE020030FF3BD4
:100358007F087E0403190034A62964008001013156
:100368000130FE020030FF3B7F087E040319003491
:10037800B229413454342B3443344D344734523445
:100388003D34343400342000E40023009E1CC92985
:100398002000640823009A0008004F3420345034A9
:1003A80055344C3441340034F00023009E1CD929C4
:0603B80070089A00080025
:020000040001F9
:04000E00E2FFFFFE10
:00000001FF
